{
  "contractName": "Election",
  "abi": [
    {
      "inputs": [],
      "payable": false,
      "stateMutability": "nonpayable",
      "type": "constructor"
    },
    {
      "constant": true,
      "inputs": [
        {
          "internalType": "uint256",
          "name": "",
          "type": "uint256"
        }
      ],
      "name": "candidates",
      "outputs": [
        {
          "internalType": "uint256",
          "name": "id",
          "type": "uint256"
        },
        {
          "internalType": "string",
          "name": "leadName",
          "type": "string"
        },
        {
          "internalType": "string",
          "name": "viceName",
          "type": "string"
        },
        {
          "internalType": "string",
          "name": "imageUrl",
          "type": "string"
        },
        {
          "internalType": "string",
          "name": "vision",
          "type": "string"
        },
        {
          "internalType": "string",
          "name": "mission",
          "type": "string"
        },
        {
          "internalType": "uint256",
          "name": "voteCount",
          "type": "uint256"
        }
      ],
      "payable": false,
      "stateMutability": "view",
      "type": "function"
    },
    {
      "constant": true,
      "inputs": [],
      "name": "candidatesCount",
      "outputs": [
        {
          "internalType": "uint256",
          "name": "",
          "type": "uint256"
        }
      ],
      "payable": false,
      "stateMutability": "view",
      "type": "function"
    },
    {
      "constant": true,
      "inputs": [],
      "name": "kecamatanCount",
      "outputs": [
        {
          "internalType": "uint256",
          "name": "",
          "type": "uint256"
        }
      ],
      "payable": false,
      "stateMutability": "view",
      "type": "function"
    },
    {
      "constant": true,
      "inputs": [
        {
          "internalType": "uint256",
          "name": "",
          "type": "uint256"
        }
      ],
      "name": "kecamatanData",
      "outputs": [
        {
          "internalType": "uint256",
          "name": "id",
          "type": "uint256"
        },
        {
          "internalType": "string",
          "name": "name",
          "type": "string"
        },
        {
          "internalType": "uint256",
          "name": "kotaId",
          "type": "uint256"
        },
        {
          "internalType": "uint256",
          "name": "voteCount",
          "type": "uint256"
        }
      ],
      "payable": false,
      "stateMutability": "view",
      "type": "function"
    },
    {
      "constant": true,
      "inputs": [],
      "name": "kelurahanCount",
      "outputs": [
        {
          "internalType": "uint256",
          "name": "",
          "type": "uint256"
        }
      ],
      "payable": false,
      "stateMutability": "view",
      "type": "function"
    },
    {
      "constant": true,
      "inputs": [
        {
          "internalType": "uint256",
          "name": "",
          "type": "uint256"
        }
      ],
      "name": "kelurahanData",
      "outputs": [
        {
          "internalType": "uint256",
          "name": "id",
          "type": "uint256"
        },
        {
          "internalType": "string",
          "name": "name",
          "type": "string"
        },
        {
          "internalType": "uint256",
          "name": "kecamatanId",
          "type": "uint256"
        },
        {
          "internalType": "uint256",
          "name": "voteCount",
          "type": "uint256"
        }
      ],
      "payable": false,
      "stateMutability": "view",
      "type": "function"
    },
    {
      "constant": true,
      "inputs": [],
      "name": "kotaCount",
      "outputs": [
        {
          "internalType": "uint256",
          "name": "",
          "type": "uint256"
        }
      ],
      "payable": false,
      "stateMutability": "view",
      "type": "function"
    },
    {
      "constant": true,
      "inputs": [
        {
          "internalType": "uint256",
          "name": "",
          "type": "uint256"
        }
      ],
      "name": "kotaData",
      "outputs": [
        {
          "internalType": "uint256",
          "name": "id",
          "type": "uint256"
        },
        {
          "internalType": "string",
          "name": "name",
          "type": "string"
        },
        {
          "internalType": "uint256",
          "name": "provinsiId",
          "type": "uint256"
        },
        {
          "internalType": "uint256",
          "name": "voteCount",
          "type": "uint256"
        }
      ],
      "payable": false,
      "stateMutability": "view",
      "type": "function"
    },
    {
      "constant": true,
      "inputs": [],
      "name": "provinsiCount",
      "outputs": [
        {
          "internalType": "uint256",
          "name": "",
          "type": "uint256"
        }
      ],
      "payable": false,
      "stateMutability": "view",
      "type": "function"
    },
    {
      "constant": true,
      "inputs": [
        {
          "internalType": "uint256",
          "name": "",
          "type": "uint256"
        }
      ],
      "name": "provinsiData",
      "outputs": [
        {
          "internalType": "uint256",
          "name": "id",
          "type": "uint256"
        },
        {
          "internalType": "string",
          "name": "name",
          "type": "string"
        },
        {
          "internalType": "uint256",
          "name": "voteCount",
          "type": "uint256"
        }
      ],
      "payable": false,
      "stateMutability": "view",
      "type": "function"
    },
    {
      "constant": true,
      "inputs": [],
      "name": "tpsCount",
      "outputs": [
        {
          "internalType": "uint256",
          "name": "",
          "type": "uint256"
        }
      ],
      "payable": false,
      "stateMutability": "view",
      "type": "function"
    },
    {
      "constant": true,
      "inputs": [
        {
          "internalType": "uint256",
          "name": "",
          "type": "uint256"
        }
      ],
      "name": "tpsData",
      "outputs": [
        {
          "internalType": "uint256",
          "name": "id",
          "type": "uint256"
        },
        {
          "internalType": "string",
          "name": "name",
          "type": "string"
        },
        {
          "internalType": "uint256",
          "name": "kelurahanId",
          "type": "uint256"
        },
        {
          "internalType": "uint256",
          "name": "voteCount",
          "type": "uint256"
        },
        {
          "internalType": "bytes32",
          "name": "lastVoteHash",
          "type": "bytes32"
        }
      ],
      "payable": false,
      "stateMutability": "view",
      "type": "function"
    },
    {
      "constant": true,
      "inputs": [],
      "name": "userCount",
      "outputs": [
        {
          "internalType": "uint256",
          "name": "",
          "type": "uint256"
        }
      ],
      "payable": false,
      "stateMutability": "view",
      "type": "function"
    },
    {
      "constant": true,
      "inputs": [
        {
          "internalType": "address",
          "name": "",
          "type": "address"
        }
      ],
      "name": "userData",
      "outputs": [
        {
          "internalType": "uint256",
          "name": "id",
          "type": "uint256"
        },
        {
          "internalType": "address",
          "name": "ethAddress",
          "type": "address"
        },
        {
          "internalType": "bool",
          "name": "isAdmin",
          "type": "bool"
        }
      ],
      "payable": false,
      "stateMutability": "view",
      "type": "function"
    },
    {
      "constant": true,
      "inputs": [
        {
          "internalType": "address",
          "name": "",
          "type": "address"
        }
      ],
      "name": "userExists",
      "outputs": [
        {
          "internalType": "bool",
          "name": "",
          "type": "bool"
        }
      ],
      "payable": false,
      "stateMutability": "view",
      "type": "function"
    },
    {
      "constant": true,
      "inputs": [
        {
          "internalType": "address",
          "name": "",
          "type": "address"
        }
      ],
      "name": "voters",
      "outputs": [
        {
          "internalType": "bool",
          "name": "",
          "type": "bool"
        }
      ],
      "payable": false,
      "stateMutability": "view",
      "type": "function"
    },
    {
      "constant": false,
      "inputs": [
        {
          "internalType": "string",
          "name": "_leadName",
          "type": "string"
        },
        {
          "internalType": "string",
          "name": "_viceName",
          "type": "string"
        },
        {
          "internalType": "string",
          "name": "_imageUrl",
          "type": "string"
        },
        {
          "internalType": "string",
          "name": "_vision",
          "type": "string"
        },
        {
          "internalType": "string",
          "name": "_mission",
          "type": "string"
        }
      ],
      "name": "addCandidate",
      "outputs": [],
      "payable": false,
      "stateMutability": "nonpayable",
      "type": "function"
    },
    {
      "constant": false,
      "inputs": [
        {
          "internalType": "string",
          "name": "_name",
          "type": "string"
        },
        {
          "internalType": "uint256",
          "name": "_kelurahanId",
          "type": "uint256"
        }
      ],
      "name": "addTPS",
      "outputs": [],
      "payable": false,
      "stateMutability": "nonpayable",
      "type": "function"
    },
    {
      "constant": false,
      "inputs": [
        {
          "internalType": "uint256",
          "name": "_candidateId",
          "type": "uint256"
        },
        {
          "internalType": "uint256",
          "name": "_tpsId",
          "type": "uint256"
        }
      ],
      "name": "vote",
      "outputs": [],
      "payable": false,
      "stateMutability": "nonpayable",
      "type": "function"
    },
    {
      "constant": false,
      "inputs": [
        {
          "internalType": "string",
          "name": "_name",
          "type": "string"
        },
        {
          "internalType": "uint256",
          "name": "_kecamatanId",
          "type": "uint256"
        }
      ],
      "name": "addKelurahan",
      "outputs": [],
      "payable": false,
      "stateMutability": "nonpayable",
      "type": "function"
    },
    {
      "constant": false,
      "inputs": [
        {
          "internalType": "string",
          "name": "_name",
          "type": "string"
        },
        {
          "internalType": "uint256",
          "name": "_kotaId",
          "type": "uint256"
        }
      ],
      "name": "addKecamatan",
      "outputs": [],
      "payable": false,
      "stateMutability": "nonpayable",
      "type": "function"
    },
    {
      "constant": false,
      "inputs": [
        {
          "internalType": "string",
          "name": "_name",
          "type": "string"
        },
        {
          "internalType": "uint256",
          "name": "_provinsiId",
          "type": "uint256"
        }
      ],
      "name": "addKota",
      "outputs": [],
      "payable": false,
      "stateMutability": "nonpayable",
      "type": "function"
    },
    {
      "constant": false,
      "inputs": [
        {
          "internalType": "string",
          "name": "_name",
          "type": "string"
        }
      ],
      "name": "addProvinsi",
      "outputs": [],
      "payable": false,
      "stateMutability": "nonpayable",
      "type": "function"
    },
    {
      "constant": false,
      "inputs": [
        {
          "internalType": "address",
          "name": "_ethAddress",
          "type": "address"
        },
        {
          "internalType": "bool",
          "name": "_isAdmin",
          "type": "bool"
        }
      ],
      "name": "addUser",
      "outputs": [],
      "payable": false,
      "stateMutability": "nonpayable",
      "type": "function"
    },
    {
      "constant": true,
      "inputs": [
        {
          "internalType": "uint256",
          "name": "_tpsId",
          "type": "uint256"
        }
      ],
      "name": "validateVotes",
      "outputs": [
        {
          "internalType": "bool",
          "name": "",
          "type": "bool"
        }
      ],
      "payable": false,
      "stateMutability": "view",
      "type": "function"
    },
    {
      "constant": false,
      "inputs": [],
      "name": "calculateVotes",
      "outputs": [],
      "payable": false,
      "stateMutability": "nonpayable",
      "type": "function"
    },
    {
      "constant": false,
      "inputs": [],
      "name": "getWinner",
      "outputs": [
        {
          "components": [
            {
              "internalType": "uint256",
              "name": "id",
              "type": "uint256"
            },
            {
              "internalType": "string",
              "name": "leadName",
              "type": "string"
            },
            {
              "internalType": "string",
              "name": "viceName",
              "type": "string"
            },
            {
              "internalType": "string",
              "name": "imageUrl",
              "type": "string"
            },
            {
              "internalType": "string",
              "name": "vision",
              "type": "string"
            },
            {
              "internalType": "string",
              "name": "mission",
              "type": "string"
            },
            {
              "internalType": "uint256",
              "name": "voteCount",
              "type": "uint256"
            }
          ],
          "internalType": "struct Election.Candidate",
          "name": "",
          "type": "tuple"
        }
      ],
      "payable": false,
      "stateMutability": "nonpayable",
      "type": "function"
    },
    {
      "constant": true,
      "inputs": [],
      "name": "getCandidates",
      "outputs": [
        {
          "components": [
            {
              "internalType": "uint256",
              "name": "id",
              "type": "uint256"
            },
            {
              "internalType": "string",
              "name": "leadName",
              "type": "string"
            },
            {
              "internalType": "string",
              "name": "viceName",
              "type": "string"
            },
            {
              "internalType": "string",
              "name": "imageUrl",
              "type": "string"
            },
            {
              "internalType": "string",
              "name": "vision",
              "type": "string"
            },
            {
              "internalType": "string",
              "name": "mission",
              "type": "string"
            },
            {
              "internalType": "uint256",
              "name": "voteCount",
              "type": "uint256"
            }
          ],
          "internalType": "struct Election.Candidate[]",
          "name": "",
          "type": "tuple[]"
        }
      ],
      "payable": false,
      "stateMutability": "view",
      "type": "function"
    },
    {
      "constant": true,
      "inputs": [
        {
          "internalType": "uint256",
          "name": "_tpsId",
          "type": "uint256"
        }
      ],
      "name": "getTPSVotes",
      "outputs": [
        {
          "components": [
            {
              "internalType": "uint256",
              "name": "candidateId",
              "type": "uint256"
            },
            {
              "internalType": "address",
              "name": "voter",
              "type": "address"
            },
            {
              "internalType": "bytes32",
              "name": "previousVoteHash",
              "type": "bytes32"
            }
          ],
          "internalType": "struct Election.Vote[]",
          "name": "",
          "type": "tuple[]"
        }
      ],
      "payable": false,
      "stateMutability": "view",
      "type": "function"
    },
    {
      "constant": true,
      "inputs": [
        {
          "internalType": "address",
          "name": "_voter",
          "type": "address"
        }
      ],
      "name": "hasVoted",
      "outputs": [
        {
          "internalType": "bool",
          "name": "",
          "type": "bool"
        }
      ],
      "payable": false,
      "stateMutability": "view",
      "type": "function"
    },
    {
      "constant": true,
      "inputs": [],
      "name": "getUsers",
      "outputs": [
        {
          "components": [
            {
              "internalType": "uint256",
              "name": "id",
              "type": "uint256"
            },
            {
              "internalType": "address",
              "name": "ethAddress",
              "type": "address"
            },
            {
              "internalType": "bool",
              "name": "isAdmin",
              "type": "bool"
            }
          ],
          "internalType": "struct Election.User[]",
          "name": "",
          "type": "tuple[]"
        }
      ],
      "payable": false,
      "stateMutability": "view",
      "type": "function"
    },
    {
      "constant": true,
      "inputs": [
        {
          "internalType": "address",
          "name": "_ethAddress",
          "type": "address"
        }
      ],
      "name": "checkIfUserExists",
      "outputs": [
        {
          "internalType": "bool",
          "name": "",
          "type": "bool"
        }
      ],
      "payable": false,
      "stateMutability": "view",
      "type": "function"
    }
  ],
  "bytecode": "0x608060405234801561001057600080fd5b50600060018190555060006003819055506000600581905550600060078190555060006009819055506000600b819055506000600f81905550613aba806100586000396000f3fe608060405234801561001057600080fd5b506004361061020c576000357c010000000000000000000000000000000000000000000000000000000090048063945ddfb91161012c578063c02a975c116100bf578063c89109131161008e578063c891091314610626578063d78b9cc214610658578063d808d53c14610674578063f2ba18ed146106a45761020c565b8063c02a975c14610585578063c047c43d146105a3578063c4749d10146105d5578063c4dc0f0e146106085761020c565b8063ab6dcfc9116100fb578063ab6dcfc9146104e5578063b384abef14610503578063b7fe089b1461051f578063bbf39872146105525761020c565b8063945ddfb9146104615780639e755a6c1461047d578063a3ec138d14610499578063ab2b3a80146104c95761020c565b80633477ee2e116101a4578063815123fa11610173578063815123fa146103c557806382a2aed4146103f55780638e7ea5b2146104135780639371de2b146104315761020c565b80633477ee2e146103395780635a3290231461036f578063619e88411461038b5780637be836e7146103a75761020c565b806309eef43e116101e057806309eef43e1461029f5780630e666e49146102cf57806320d72642146102ff5780632d35a8a21461031b5761020c565b8062ce8e3e14610211578063049ee1a81461022f57806306a49fce1461026357806307973ccf14610281575b600080fd5b6102196106ae565b604051610226919061351e565b60405180910390f35b61024960048036036102449190810190612e6e565b6108b4565b60405161025a95949392919061378d565b60405180910390f35b61026b610982565b60405161027891906134fc565b60405180910390f35b610289610d5e565b604051610296919061361f565b60405180910390f35b6102b960048036036102b49190810190612c85565b610d64565b6040516102c69190613562565b60405180910390f35b6102e960048036036102e49190810190612c85565b610dba565b6040516102f69190613562565b60405180910390f35b61031960048036036103149190810190612e1a565b610dda565b005b610323610e98565b604051610330919061361f565b60405180910390f35b610353600480360361034e9190810190612e6e565b610e9e565b6040516103669796959493929190613671565b60405180910390f35b61038960048036036103849190810190612e1a565b6111d8565b005b6103a560048036036103a09190810190612cea565b611265565b005b6103af6112e1565b6040516103bc919061361f565b60405180910390f35b6103df60048036036103da9190810190612e6e565b6112e7565b6040516103ec9190613540565b60405180910390f35b6103fd61145a565b60405161040a919061361f565b60405180910390f35b61041b611460565b60405161042891906135fd565b60405180910390f35b61044b60048036036104469190810190612c85565b611b7a565b6040516104589190613562565b60405180910390f35b61047b60048036036104769190810190612d2b565b611bd0565b005b61049760048036036104929190810190612e1a565b611cdb565b005b6104b360048036036104ae9190810190612c85565b611d68565b6040516104c09190613562565b60405180910390f35b6104e360048036036104de9190810190612cae565b611d88565b005b6104ed611f6b565b6040516104fa919061361f565b60405180910390f35b61051d60048036036105189190810190612e97565b611f71565b005b61053960048036036105349190810190612e6e565b61221f565b6040516105499493929190613741565b60405180910390f35b61056c60048036036105679190810190612e6e565b6122e7565b60405161057c9493929190613741565b60405180910390f35b61058d6123af565b60405161059a919061361f565b60405180910390f35b6105bd60048036036105b89190810190612e6e565b6123b5565b6040516105cc93929190613703565b60405180910390f35b6105ef60048036036105ea9190810190612e6e565b612477565b6040516105ff9493929190613741565b60405180910390f35b61061061253f565b60405161061d919061361f565b60405180910390f35b610640600480360361063b9190810190612c85565b612545565b60405161064f9392919061363a565b60405180910390f35b610672600480360361066d9190810190612e1a565b61259c565b005b61068e60048036036106899190810190612e6e565b612629565b60405161069b9190613562565b60405180910390f35b6106ac61278c565b005b606080600f546040519080825280602002602001820160405280156106ed57816020015b6106da6129a6565b8152602001906001900390816106d25790505b50905060008090506000600190505b600f5481116108ab57600d6000600c60008473ffffffffffffffffffffffffffffffffffffffff1673ffffffffffffffffffffffffffffffffffffffff16815260200190815260200160002060010160009054906101000a900473ffffffffffffffffffffffffffffffffffffffff1673ffffffffffffffffffffffffffffffffffffffff1673ffffffffffffffffffffffffffffffffffffffff16815260200190815260200160002060009054906101000a900460ff161561089e57600c60008273ffffffffffffffffffffffffffffffffffffffff1673ffffffffffffffffffffffffffffffffffffffff168152602001908152602001600020604051806060016040529081600082015481526020016001820160009054906101000a900473ffffffffffffffffffffffffffffffffffffffff1673ffffffffffffffffffffffffffffffffffffffff1673ffffffffffffffffffffffffffffffffffffffff1681526020016001820160149054906101000a900460ff16151515158152505083838151811061088a57fe5b602002602001018190525081806001019250505b80806001019150506106fc565b50819250505090565b6002602052806000526040600020600091509050806000015490806001018054600181600116156101000203166002900480601f0160208091040260200160405190810160405280929190818152602001828054600181600116156101000203166002900480156109665780601f1061093b57610100808354040283529160200191610966565b820191906000526020600020905b81548152906001019060200180831161094957829003601f168201915b5050505050908060020154908060030154908060040154905085565b6060806001546040519080825280602002602001820160405280156109c157816020015b6109ae6129df565b8152602001906001900390816109a65790505b5090506000600190505b6001548111610d56576000808281526020019081526020016000206040518060e001604052908160008201548152602001600182018054600181600116156101000203166002900480601f016020809104026020016040519081016040528092919081815260200182805460018160011615610100020316600290048015610a945780601f10610a6957610100808354040283529160200191610a94565b820191906000526020600020905b815481529060010190602001808311610a7757829003601f168201915b50505050508152602001600282018054600181600116156101000203166002900480601f016020809104026020016040519081016040528092919081815260200182805460018160011615610100020316600290048015610b365780601f10610b0b57610100808354040283529160200191610b36565b820191906000526020600020905b815481529060010190602001808311610b1957829003601f168201915b50505050508152602001600382018054600181600116156101000203166002900480601f016020809104026020016040519081016040528092919081815260200182805460018160011615610100020316600290048015610bd85780601f10610bad57610100808354040283529160200191610bd8565b820191906000526020600020905b815481529060010190602001808311610bbb57829003601f168201915b50505050508152602001600482018054600181600116156101000203166002900480601f016020809104026020016040519081016040528092919081815260200182805460018160011615610100020316600290048015610c7a5780601f10610c4f57610100808354040283529160200191610c7a565b820191906000526020600020905b815481529060010190602001808311610c5d57829003601f168201915b50505050508152602001600582018054600181600116156101000203166002900480601f016020809104026020016040519081016040528092919081815260200182805460018160011615610100020316600290048015610d1c5780601f10610cf157610100808354040283529160200191610d1c565b820191906000526020600020905b815481529060010190602001808311610cff57829003601f168201915b50505050508152602001600682015481525050826001830381518110610d3e57fe5b602002602001018190525080806001019150506109cb565b508091505090565b600f5481565b6000600e60008373ffffffffffffffffffffffffffffffffffffffff1673ffffffffffffffffffffffffffffffffffffffff16815260200190815260200160002060009054906101000a900460ff169050919050565b600d6020528060005260406000206000915054906101000a900460ff1681565b60036000815480929190600101919050555060035460026000600354815260200190815260200160002060000181905550816002600060035481526020019081526020016000206001019080519060200190610e37929190612a1c565b5080600260006003548152602001908152602001600020600201819055506000600260006003548152602001908152602001600020600301819055506000600102600260006003548152602001908152602001600020600401819055505050565b60015481565b6000602052806000526040600020600091509050806000015490806001018054600181600116156101000203166002900480601f016020809104026020016040519081016040528092919081815260200182805460018160011615610100020316600290048015610f505780601f10610f2557610100808354040283529160200191610f50565b820191906000526020600020905b815481529060010190602001808311610f3357829003601f168201915b505050505090806002018054600181600116156101000203166002900480601f016020809104026020016040519081016040528092919081815260200182805460018160011615610100020316600290048015610fee5780601f10610fc357610100808354040283529160200191610fee565b820191906000526020600020905b815481529060010190602001808311610fd157829003601f168201915b505050505090806003018054600181600116156101000203166002900480601f01602080910402602001604051908101604052809291908181526020018280546001816001161561010002031660029004801561108c5780601f106110615761010080835404028352916020019161108c565b820191906000526020600020905b81548152906001019060200180831161106f57829003601f168201915b505050505090806004018054600181600116156101000203166002900480601f01602080910402602001604051908101604052809291908181526020018280546001816001161561010002031660029004801561112a5780601f106110ff5761010080835404028352916020019161112a565b820191906000526020600020905b81548152906001019060200180831161110d57829003601f168201915b505050505090806005018054600181600116156101000203166002900480601f0160208091040260200160405190810160405280929190818152602001828054600181600116156101000203166002900480156111c85780601f1061119d576101008083540402835291602001916111c8565b820191906000526020600020905b8154815290600101906020018083116111ab57829003601f168201915b5050505050908060060154905087565b600960008154809291906001019190505550604051806080016040528060095481526020018381526020018281526020016000815250600860006009548152602001908152602001600020600082015181600001556020820151816001019080519060200190611249929190612a9c565b5060408201518160020155606082015181600301559050505050565b600b600081548092919060010191905055506040518060600160405280600b5481526020018281526020016000815250600a6000600b5481526020019081526020016000206000820151816000015560208201518160010190805190602001906112d0929190612a9c565b506040820151816002015590505050565b60035481565b606060006002600084815260200190815260200160002060030154905060608160405190808252806020026020018201604052801561134057816020015b61132d612b1c565b8152602001906001900390816113255790505b50905060006002600086815260200190815260200160002060040154905060008390505b600081111561144e57600260008781526020019081526020016000206005016000838152602001908152602001600020604051806060016040529081600082015481526020016001820160009054906101000a900473ffffffffffffffffffffffffffffffffffffffff1673ffffffffffffffffffffffffffffffffffffffff1673ffffffffffffffffffffffffffffffffffffffff16815260200160028201548152505083600183038151811061141857fe5b602002602001018190525082600182038151811061143257fe5b6020026020010151604001519150808060019003915050611364565b50819350505050919050565b60055481565b611468612b56565b61147061278c565b611478612b56565b600080600181526020019081526020016000206040518060e001604052908160008201548152602001600182018054600181600116156101000203166002900480601f0160208091040260200160405190810160405280929190818152602001828054600181600116156101000203166002900480156115395780601f1061150e57610100808354040283529160200191611539565b820191906000526020600020905b81548152906001019060200180831161151c57829003601f168201915b50505050508152602001600282018054600181600116156101000203166002900480601f0160208091040260200160405190810160405280929190818152602001828054600181600116156101000203166002900480156115db5780601f106115b0576101008083540402835291602001916115db565b820191906000526020600020905b8154815290600101906020018083116115be57829003601f168201915b50505050508152602001600382018054600181600116156101000203166002900480601f01602080910402602001604051908101604052809291908181526020018280546001816001161561010002031660029004801561167d5780601f106116525761010080835404028352916020019161167d565b820191906000526020600020905b81548152906001019060200180831161166057829003601f168201915b50505050508152602001600482018054600181600116156101000203166002900480601f01602080910402602001604051908101604052809291908181526020018280546001816001161561010002031660029004801561171f5780601f106116f45761010080835404028352916020019161171f565b820191906000526020600020905b81548152906001019060200180831161170257829003601f168201915b50505050508152602001600582018054600181600116156101000203166002900480601f0160208091040260200160405190810160405280929190818152602001828054600181600116156101000203166002900480156117c15780601f10611796576101008083540402835291602001916117c1565b820191906000526020600020905b8154815290600101906020018083116117a457829003601f168201915b5050505050815260200160068201548152505090506000600290505b6001548111611b72578160c00151600080838152602001908152602001600020600601541115611b65576000808281526020019081526020016000206040518060e001604052908160008201548152602001600182018054600181600116156101000203166002900480601f0160208091040260200160405190810160405280929190818152602001828054600181600116156101000203166002900480156118c75780601f1061189c576101008083540402835291602001916118c7565b820191906000526020600020905b8154815290600101906020018083116118aa57829003601f168201915b50505050508152602001600282018054600181600116156101000203166002900480601f0160208091040260200160405190810160405280929190818152602001828054600181600116156101000203166002900480156119695780601f1061193e57610100808354040283529160200191611969565b820191906000526020600020905b81548152906001019060200180831161194c57829003601f168201915b50505050508152602001600382018054600181600116156101000203166002900480601f016020809104026020016040519081016040528092919081815260200182805460018160011615610100020316600290048015611a0b5780601f106119e057610100808354040283529160200191611a0b565b820191906000526020600020905b8154815290600101906020018083116119ee57829003601f168201915b50505050508152602001600482018054600181600116156101000203166002900480601f016020809104026020016040519081016040528092919081815260200182805460018160011615610100020316600290048015611aad5780601f10611a8257610100808354040283529160200191611aad565b820191906000526020600020905b815481529060010190602001808311611a9057829003601f168201915b50505050508152602001600582018054600181600116156101000203166002900480601f016020809104026020016040519081016040528092919081815260200182805460018160011615610100020316600290048015611b4f5780601f10611b2457610100808354040283529160200191611b4f565b820191906000526020600020905b815481529060010190602001808311611b3257829003601f168201915b5050505050815260200160068201548152505091505b80806001019150506117dd565b508091505090565b6000600d60008373ffffffffffffffffffffffffffffffffffffffff1673ffffffffffffffffffffffffffffffffffffffff16815260200190815260200160002060009054906101000a900460ff169050919050565b6001600081548092919060010191905055506040518060e00160405280600154815260200186815260200185815260200184815260200183815260200182815260200160008152506000806001548152602001908152602001600020600082015181600001556020820151816001019080519060200190611c52929190612a9c565b506040820151816002019080519060200190611c6f929190612a9c565b506060820151816003019080519060200190611c8c929190612a9c565b506080820151816004019080519060200190611ca9929190612a9c565b5060a0820151816005019080519060200190611cc6929190612a9c565b5060c082015181600601559050505050505050565b600560008154809291906001019190505550604051806080016040528060055481526020018381526020018281526020016000815250600460006005548152602001908152602001600020600082015181600001556020820151816001019080519060200190611d4c929190612a9c565b5060408201518160020155606082015181600301559050505050565b600e6020528060005260406000206000915054906101000a900460ff1681565b600d60008373ffffffffffffffffffffffffffffffffffffffff1673ffffffffffffffffffffffffffffffffffffffff16815260200190815260200160002060009054906101000a900460ff1615611e15576040517f08c379a0000000000000000000000000000000000000000000000000000000008152600401611e0c9061357d565b60405180910390fd5b600f600081548092919060010191905055506040518060600160405280600f5481526020018373ffffffffffffffffffffffffffffffffffffffff168152602001821515815250600c60008473ffffffffffffffffffffffffffffffffffffffff1673ffffffffffffffffffffffffffffffffffffffff1681526020019081526020016000206000820151816000015560208201518160010160006101000a81548173ffffffffffffffffffffffffffffffffffffffff021916908373ffffffffffffffffffffffffffffffffffffffff16021790555060408201518160010160146101000a81548160ff0219169083151502179055509050506001600d60008473ffffffffffffffffffffffffffffffffffffffff1673ffffffffffffffffffffffffffffffffffffffff16815260200190815260200160002060006101000a81548160ff0219169083151502179055505050565b60095481565b600e60003373ffffffffffffffffffffffffffffffffffffffff1673ffffffffffffffffffffffffffffffffffffffff16815260200190815260200160002060009054906101000a900460ff1615611ffe576040517f08c379a0000000000000000000000000000000000000000000000000000000008152600401611ff5906135dd565b60405180910390fd5b60008211801561201057506001548211155b61204f576040517f08c379a0000000000000000000000000000000000000000000000000000000008152600401612046906135bd565b60405180910390fd5b600060026000838152602001908152602001600020600401549050600083338360405160200161208193929190613482565b6040516020818303038152906040528051906020012090506120a1612b93565b60405180606001604052808681526020013373ffffffffffffffffffffffffffffffffffffffff168152602001848152509050806002600086815260200190815260200160002060050160008481526020019081526020016000206000820151816000015560208201518160010160006101000a81548173ffffffffffffffffffffffffffffffffffffffff021916908373ffffffffffffffffffffffffffffffffffffffff1602179055506040820151816002015590505081600260008681526020019081526020016000206004018190555060026000858152602001908152602001600020600301600081548092919060010191905055506001600e60003373ffffffffffffffffffffffffffffffffffffffff1673ffffffffffffffffffffffffffffffffffffffff16815260200190815260200160002060006101000a81548160ff021916908315150217905550600080868152602001908152602001600020600601600081548092919060010191905055505050505050565b6008602052806000526040600020600091509050806000015490806001018054600181600116156101000203166002900480601f0160208091040260200160405190810160405280929190818152602001828054600181600116156101000203166002900480156122d15780601f106122a6576101008083540402835291602001916122d1565b820191906000526020600020905b8154815290600101906020018083116122b457829003601f168201915b5050505050908060020154908060030154905084565b6006602052806000526040600020600091509050806000015490806001018054600181600116156101000203166002900480601f0160208091040260200160405190810160405280929190818152602001828054600181600116156101000203166002900480156123995780601f1061236e57610100808354040283529160200191612399565b820191906000526020600020905b81548152906001019060200180831161237c57829003601f168201915b5050505050908060020154908060030154905084565b60075481565b600a602052806000526040600020600091509050806000015490806001018054600181600116156101000203166002900480601f0160208091040260200160405190810160405280929190818152602001828054600181600116156101000203166002900480156124675780601f1061243c57610100808354040283529160200191612467565b820191906000526020600020905b81548152906001019060200180831161244a57829003601f168201915b5050505050908060020154905083565b6004602052806000526040600020600091509050806000015490806001018054600181600116156101000203166002900480601f0160208091040260200160405190810160405280929190818152602001828054600181600116156101000203166002900480156125295780601f106124fe57610100808354040283529160200191612529565b820191906000526020600020905b81548152906001019060200180831161250c57829003601f168201915b5050505050908060020154908060030154905084565b600b5481565b600c6020528060005260406000206000915090508060000154908060010160009054906101000a900473ffffffffffffffffffffffffffffffffffffffff16908060010160149054906101000a900460ff16905083565b60076000815480929190600101919050555060405180608001604052806007548152602001838152602001828152602001600081525060066000600754815260200190815260200160002060008201518160000155602082015181600101908051906020019061260d929190612a9c565b5060408201518160020155606082015181600301559050505050565b6000806002600084815260200190815260200160002060030154905060008090506000600260008681526020019081526020016000206004015490505b6000600102811461277157612679612b93565b600260008781526020019081526020016000206005016000838152602001908152602001600020604051806060016040529081600082015481526020016001820160009054906101000a900473ffffffffffffffffffffffffffffffffffffffff1673ffffffffffffffffffffffffffffffffffffffff1673ffffffffffffffffffffffffffffffffffffffff1681526020016002820154815250509050600081600001518260200151836040015160405160200161273a939291906134bf565b604051602081830303815290604052805190602001209050828114156127635783806001019450505b816040015192505050612666565b6064603384028161277e57fe5b048210159350505050919050565b6000600190505b6003548111612847576127a581612629565b6127e4576040517f08c379a00000000000000000000000000000000000000000000000000000000081526004016127db9061359d565b60405180910390fd5b60006002600083815260200190815260200160002060020154905060026000838152602001908152602001600020600301546004600083815260200190815260200160002060030160008282540192505081905550508080600101915050612793565b506000600190505b60055481116128bb576000600460008381526020019081526020016000206002015490506004600083815260200190815260200160002060030154600660008381526020019081526020016000206003016000828254019250508190555050808060010191505061284f565b506000600190505b600754811161292f57600060066000838152602001908152602001600020600201549050600660008381526020019081526020016000206003015460086000838152602001908152602001600020600301600082825401925050819055505080806001019150506128c3565b506000600190505b60095481116129a3576000600860008381526020019081526020016000206002015490506008600083815260200190815260200160002060030154600a600083815260200190815260200160002060020160008282540192505081905550508080600101915050612937565b50565b604051806060016040528060008152602001600073ffffffffffffffffffffffffffffffffffffffff1681526020016000151581525090565b6040518060e00160405280600081526020016060815260200160608152602001606081526020016060815260200160608152602001600081525090565b828054600181600116156101000203166002900490600052602060002090601f016020900481019282601f10612a5d57805160ff1916838001178555612a8b565b82800160010185558215612a8b579182015b82811115612a8a578251825591602001919060010190612a6f565b5b509050612a989190612bcd565b5090565b828054600181600116156101000203166002900490600052602060002090601f016020900481019282601f10612add57805160ff1916838001178555612b0b565b82800160010185558215612b0b579182015b82811115612b0a578251825591602001919060010190612aef565b5b509050612b189190612bcd565b5090565b604051806060016040528060008152602001600073ffffffffffffffffffffffffffffffffffffffff168152602001600080191681525090565b6040518060e00160405280600081526020016060815260200160608152602001606081526020016060815260200160608152602001600081525090565b604051806060016040528060008152602001600073ffffffffffffffffffffffffffffffffffffffff168152602001600080191681525090565b612bef91905b80821115612beb576000816000905550600101612bd3565b5090565b90565b600081359050612c0181613a32565b92915050565b600081359050612c1681613a49565b92915050565b600082601f830112612c2d57600080fd5b8135612c40612c3b82613814565b6137e7565b91508082526020830160208301858383011115612c5c57600080fd5b612c6783828461397c565b50505092915050565b600081359050612c7f81613a60565b92915050565b600060208284031215612c9757600080fd5b6000612ca584828501612bf2565b91505092915050565b60008060408385031215612cc157600080fd5b6000612ccf85828601612bf2565b9250506020612ce085828601612c07565b9150509250929050565b600060208284031215612cfc57600080fd5b600082013567ffffffffffffffff811115612d1657600080fd5b612d2284828501612c1c565b91505092915050565b600080600080600060a08688031215612d4357600080fd5b600086013567ffffffffffffffff811115612d5d57600080fd5b612d6988828901612c1c565b955050602086013567ffffffffffffffff811115612d8657600080fd5b612d9288828901612c1c565b945050604086013567ffffffffffffffff811115612daf57600080fd5b612dbb88828901612c1c565b935050606086013567ffffffffffffffff811115612dd857600080fd5b612de488828901612c1c565b925050608086013567ffffffffffffffff811115612e0157600080fd5b612e0d88828901612c1c565b9150509295509295909350565b60008060408385031215612e2d57600080fd5b600083013567ffffffffffffffff811115612e4757600080fd5b612e5385828601612c1c565b9250506020612e6485828601612c70565b9150509250929050565b600060208284031215612e8057600080fd5b6000612e8e84828501612c70565b91505092915050565b60008060408385031215612eaa57600080fd5b6000612eb885828601612c70565b9250506020612ec985828601612c70565b9150509250929050565b6000612edf8383613311565b905092915050565b6000612ef383836133c9565b60608301905092915050565b6000612f0b838361340b565b60608301905092915050565b612f28612f238261392a565b6139d0565b82525050565b612f3781613918565b82525050565b612f4681613918565b82525050565b612f5d612f5882613918565b6139be565b82525050565b6000612f6e82613870565b612f7881856138c3565b935083602082028501612f8a85613840565b8060005b85811015612fc65784840389528151612fa78582612ed3565b9450612fb28361389c565b925060208a01995050600181019050612f8e565b50829750879550505050505092915050565b6000612fe38261387b565b612fed81856138d4565b9350612ff883613850565b8060005b838110156130295781516130108882612ee7565b975061301b836138a9565b925050600181019050612ffc565b5085935050505092915050565b600061304182613886565b61304b81856138e5565b935061305683613860565b8060005b8381101561308757815161306e8882612eff565b9750613079836138b6565b92505060018101905061305a565b5085935050505092915050565b61309d8161393c565b82525050565b6130ac8161393c565b82525050565b6130bb81613948565b82525050565b6130ca81613948565b82525050565b6130e16130dc82613948565b6139e2565b82525050565b60006130f282613891565b6130fc81856138f6565b935061310c81856020860161398b565b61311581613a08565b840191505092915050565b600061312b82613891565b6131358185613907565b935061314581856020860161398b565b61314e81613a08565b840191505092915050565b6000613166601383613907565b91507f5573657220616c726561647920657869737473000000000000000000000000006000830152602082019050919050565b60006131a6601b83613907565b91507f54505320766f7465732076616c69646174696f6e206661696c656400000000006000830152602082019050919050565b60006131e6601483613907565b91507f496e76616c69642063616e6469646174652049440000000000000000000000006000830152602082019050919050565b6000613226601683613907565b91507f596f75206861766520616c726561647920766f746564000000000000000000006000830152602082019050919050565b600060e083016000830151613271600086018261344d565b506020830151848203602086015261328982826130e7565b915050604083015184820360408601526132a382826130e7565b915050606083015184820360608601526132bd82826130e7565b915050608083015184820360808601526132d782826130e7565b91505060a083015184820360a08601526132f182826130e7565b91505060c083015161330660c086018261344d565b508091505092915050565b600060e083016000830151613329600086018261344d565b506020830151848203602086015261334182826130e7565b9150506040830151848203604086015261335b82826130e7565b9150506060830151848203606086015261337582826130e7565b9150506080830151848203608086015261338f82826130e7565b91505060a083015184820360a08601526133a982826130e7565b91505060c08301516133be60c086018261344d565b508091505092915050565b6060820160008201516133df600085018261344d565b5060208201516133f26020850182612f2e565b5060408201516134056040850182613094565b50505050565b606082016000820151613421600085018261344d565b5060208201516134346020850182612f2e565b50604082015161344760408501826130b2565b50505050565b61345681613972565b82525050565b61346581613972565b82525050565b61347c61347782613972565b6139fe565b82525050565b600061348e828661346b565b60208201915061349e8285612f17565b6014820191506134ae82846130d0565b602082019150819050949350505050565b60006134cb828661346b565b6020820191506134db8285612f4c565b6014820191506134eb82846130d0565b602082019150819050949350505050565b600060208201905081810360008301526135168184612f63565b905092915050565b600060208201905081810360008301526135388184612fd8565b905092915050565b6000602082019050818103600083015261355a8184613036565b905092915050565b600060208201905061357760008301846130a3565b92915050565b6000602082019050818103600083015261359681613159565b9050919050565b600060208201905081810360008301526135b681613199565b9050919050565b600060208201905081810360008301526135d6816131d9565b9050919050565b600060208201905081810360008301526135f681613219565b9050919050565b600060208201905081810360008301526136178184613259565b905092915050565b6000602082019050613634600083018461345c565b92915050565b600060608201905061364f600083018661345c565b61365c6020830185612f3d565b61366960408301846130a3565b949350505050565b600060e082019050613686600083018a61345c565b81810360208301526136988189613120565b905081810360408301526136ac8188613120565b905081810360608301526136c08187613120565b905081810360808301526136d48186613120565b905081810360a08301526136e88185613120565b90506136f760c083018461345c565b98975050505050505050565b6000606082019050613718600083018661345c565b818103602083015261372a8185613120565b9050613739604083018461345c565b949350505050565b6000608082019050613756600083018761345c565b81810360208301526137688186613120565b9050613777604083018561345c565b613784606083018461345c565b95945050505050565b600060a0820190506137a2600083018861345c565b81810360208301526137b48187613120565b90506137c3604083018661345c565b6137d0606083018561345c565b6137dd60808301846130c1565b9695505050505050565b6000604051905081810181811067ffffffffffffffff8211171561380a57600080fd5b8060405250919050565b600067ffffffffffffffff82111561382b57600080fd5b601f19601f8301169050602081019050919050565b6000819050602082019050919050565b6000819050602082019050919050565b6000819050602082019050919050565b600081519050919050565b600081519050919050565b600081519050919050565b600081519050919050565b6000602082019050919050565b6000602082019050919050565b6000602082019050919050565b600082825260208201905092915050565b600082825260208201905092915050565b600082825260208201905092915050565b600082825260208201905092915050565b600082825260208201905092915050565b600061392382613952565b9050919050565b600061393582613952565b9050919050565b60008115159050919050565b6000819050919050565b600073ffffffffffffffffffffffffffffffffffffffff82169050919050565b6000819050919050565b82818337600083830152505050565b60005b838110156139a957808201518184015260208101905061398e565b838111156139b8576000848401525b50505050565b60006139c9826139ec565b9050919050565b60006139db826139ec565b9050919050565b6000819050919050565b60006139f782613a19565b9050919050565b6000819050919050565b6000601f19601f8301169050919050565b60006c0100000000000000000000000082029050919050565b613a3b81613918565b8114613a4657600080fd5b50565b613a528161393c565b8114613a5d57600080fd5b50565b613a6981613972565b8114613a7457600080fd5b5056fea365627a7a7231582089285f4b544057875fa5d9ddf6d973789ed8a354a56bc87db6ce9624688205736c6578706572696d656e74616cf564736f6c63430005100040",
  "source": "// SPDX-License-Identifier: MIT\npragma solidity >=0.4.22 <0.9.0;\npragma experimental ABIEncoderV2;\n\ncontract Election {\n    struct Candidate {\n        uint256 id;\n        string leadName;\n        string viceName;\n        string imageUrl;\n        string vision;\n        string mission;\n        uint256 voteCount;\n    }\n\n    struct Vote {\n        uint256 candidateId;\n        address voter;\n        bytes32 previousVoteHash;\n    }\n\n    struct TPS {\n        uint256 id;\n        string name;\n        uint256 kelurahanId;\n        uint256 voteCount;\n        bytes32 lastVoteHash;\n        mapping(bytes32 => Vote) votes;\n    }\n\n    struct Kelurahan {\n        uint256 id;\n        string name;\n        uint256 kecamatanId;\n        uint256 voteCount;\n    }\n\n    struct Kecamatan {\n        uint256 id;\n        string name;\n        uint256 kotaId;\n        uint256 voteCount;\n    }\n\n    struct Kota {\n        uint256 id;\n        string name;\n        uint256 provinsiId;\n        uint256 voteCount;\n    }\n\n    struct Provinsi {\n        uint256 id;\n        string name;\n        uint256 voteCount;\n    }\n\n    struct User {\n        uint256 id;\n        address ethAddress;\n        bool isAdmin;\n    }\n\n    mapping(uint256 => Candidate) public candidates;\n    uint256 public candidatesCount;\n\n    mapping(uint256 => TPS) public tpsData;\n    uint256 public tpsCount;\n\n    mapping(uint256 => Kelurahan) public kelurahanData;\n    uint256 public kelurahanCount;\n\n    mapping(uint256 => Kecamatan) public kecamatanData;\n    uint256 public kecamatanCount;\n\n    mapping(uint256 => Kota) public kotaData;\n    uint256 public kotaCount;\n\n    mapping(uint256 => Provinsi) public provinsiData;\n    uint256 public provinsiCount;\n\n    mapping(address => User) public userData;\n    mapping(address => bool) public userExists;\n    mapping(address => bool) public voters; // Global voters mapping\n\n    uint256 public userCount;\n\n    constructor() public {\n        candidatesCount = 0;\n        tpsCount = 0;\n        kelurahanCount = 0;\n        kecamatanCount = 0;\n        kotaCount = 0;\n        provinsiCount = 0;\n        userCount = 0;\n    }\n\n    function addCandidate(\n        string memory _leadName,\n        string memory _viceName,\n        string memory _imageUrl,\n        string memory _vision,\n        string memory _mission\n    ) public {\n        candidatesCount++;\n        candidates[candidatesCount] = Candidate(candidatesCount, _leadName, _viceName, _imageUrl, _vision, _mission, 0);\n    }\n\n    function addTPS(string memory _name, uint256 _kelurahanId) public {\n        tpsCount++;\n        tpsData[tpsCount].id = tpsCount;\n        tpsData[tpsCount].name = _name;\n        tpsData[tpsCount].kelurahanId = _kelurahanId;\n        tpsData[tpsCount].voteCount = 0;\n        tpsData[tpsCount].lastVoteHash = bytes32(0);\n    }\n\n    function vote(uint256 _candidateId, uint256 _tpsId) public {\n        require(!voters[msg.sender], \"You have already voted\"); // Global check\n        require(_candidateId > 0 && _candidateId <= candidatesCount, \"Invalid candidate ID\");\n\n        // Create the new vote\n        bytes32 previousVoteHash = tpsData[_tpsId].lastVoteHash;\n        bytes32 currentVoteHash = keccak256(abi.encodePacked(_candidateId, msg.sender, previousVoteHash));\n\n        Vote memory newVote = Vote({\n            candidateId: _candidateId,\n            voter: msg.sender,\n            previousVoteHash: previousVoteHash\n        });\n\n        // Record the vote\n        tpsData[_tpsId].votes[currentVoteHash] = newVote;\n        tpsData[_tpsId].lastVoteHash = currentVoteHash;\n        tpsData[_tpsId].voteCount++;\n        voters[msg.sender] = true; // Mark voter as having voted globally\n\n        // Increment the candidate's vote count\n        candidates[_candidateId].voteCount++;\n    }\n\n    function addKelurahan(string memory _name, uint256 _kecamatanId) public {\n        kelurahanCount++;\n        kelurahanData[kelurahanCount] = Kelurahan(kelurahanCount, _name, _kecamatanId, 0);\n    }\n\n    function addKecamatan(string memory _name, uint256 _kotaId) public {\n        kecamatanCount++;\n        kecamatanData[kecamatanCount] = Kecamatan(kecamatanCount, _name, _kotaId, 0);\n    }\n\n    function addKota(string memory _name, uint256 _provinsiId) public {\n        kotaCount++;\n        kotaData[kotaCount] = Kota(kotaCount, _name, _provinsiId, 0);\n    }\n\n    function addProvinsi(string memory _name) public {\n        provinsiCount++;\n        provinsiData[provinsiCount] = Provinsi(provinsiCount, _name, 0);\n    }\n\n    function addUser(address _ethAddress, bool _isAdmin) public {\n        require(!userExists[_ethAddress], \"User already exists\");\n        userCount++;\n        userData[_ethAddress] = User(userCount, _ethAddress, _isAdmin);\n        userExists[_ethAddress] = true;\n    }\n\n    function validateVotes(uint256 _tpsId) public view returns (bool) {\n        uint256 voteCount = tpsData[_tpsId].voteCount;\n        uint256 validVotes = 0;\n\n        bytes32 currentHash = tpsData[_tpsId].lastVoteHash;\n        while (currentHash != bytes32(0)) {\n            Vote memory currentVote = tpsData[_tpsId].votes[currentHash];\n            bytes32 calculatedHash = keccak256(abi.encodePacked(currentVote.candidateId, currentVote.voter, currentVote.previousVoteHash));\n            if (calculatedHash == currentHash) {\n                validVotes++;\n            }\n            currentHash = currentVote.previousVoteHash;\n        }\n\n        return validVotes >= (voteCount * 51) / 100;\n    }\n\n    function calculateVotes() public {\n        for (uint256 i = 1; i <= tpsCount; i++) {\n            require(validateVotes(i), \"TPS votes validation failed\");\n            uint256 kelurahanId = tpsData[i].kelurahanId;\n            kelurahanData[kelurahanId].voteCount += tpsData[i].voteCount;\n        }\n\n        for (uint256 i = 1; i <= kelurahanCount; i++) {\n            uint256 kecamatanId = kelurahanData[i].kecamatanId;\n            kecamatanData[kecamatanId].voteCount += kelurahanData[i].voteCount;\n        }\n\n        for (uint256 i = 1; i <= kecamatanCount; i++) {\n            uint256 kotaId = kecamatanData[i].kotaId;\n            kotaData[kotaId].voteCount += kecamatanData[i].voteCount;\n        }\n\n        for (uint256 i = 1; i <= kotaCount; i++) {\n            uint256 provinsiId = kotaData[i].provinsiId;\n            provinsiData[provinsiId].voteCount += kotaData[i].voteCount;\n        }\n    }\n\n    function getWinner() public returns (Candidate memory) {\n        calculateVotes();\n\n        Candidate memory winner = candidates[1];\n        for (uint256 i = 2; i <= candidatesCount; i++) {\n            if (candidates[i].voteCount > winner.voteCount) {\n                winner = candidates[i];\n            }\n        }\n\n        return winner;\n    }\n\n    function getCandidates() public view returns (Candidate[] memory) {\n        Candidate[] memory candidateList = new Candidate[](candidatesCount);\n        for (uint256 i = 1; i <= candidatesCount; i++) {\n            candidateList[i - 1] = candidates[i];\n        }\n        return candidateList;\n    }\n\n    function getTPSVotes(uint256 _tpsId) public view returns (Vote[] memory) {\n        uint256 voteCount = tpsData[_tpsId].voteCount;\n        Vote[] memory votes = new Vote[](voteCount);\n\n        bytes32 currentHash = tpsData[_tpsId].lastVoteHash;\n        for (uint256 i = voteCount; i > 0; i--) {\n            votes[i - 1] = tpsData[_tpsId].votes[currentHash];\n            currentHash = votes[i - 1].previousVoteHash;\n        }\n\n        return votes;\n    }\n\n    function hasVoted(address _voter) public view returns (bool) {\n        return voters[_voter];\n    }\n\n    function getUsers() public view returns (User[] memory) {\n        User[] memory userList = new User[](userCount);\n        uint256 index = 0;\n\n        for (uint256 i = 1; i <= userCount; i++) {\n            if (userExists[userData[address(i)].ethAddress]) {\n                userList[index] = userData[address(i)];\n                index++;\n            }\n        }\n        return userList;\n    }\n\n    function checkIfUserExists(address _ethAddress) public view returns (bool) {\n        return userExists[_ethAddress];\n    }\n}\n",
  "sourcePath": "D:\\Projects\\votechain\\contracts\\Election.sol",
  "compiler": {
    "name": "solc",
    "version": "0.5.16+commit.9c3226ce.Emscripten.clang"
  },
  "schemaVersion": "3.4.16",
  "updatedAt": "2024-05-30T19:11:03.996Z",
  "networkType": "ethereum",
  "devdoc": {
    "methods": {}
  },
  "userdoc": {
    "methods": {}
  }
}