{
  "contractName": "Election",
  "abi": [
    {
      "constant": true,
      "inputs": [
        {
          "internalType": "uint256",
          "name": "",
          "type": "uint256"
        }
      ],
      "name": "candidates",
      "outputs": [
        {
          "internalType": "uint256",
          "name": "id",
          "type": "uint256"
        },
        {
          "internalType": "string",
          "name": "leadName",
          "type": "string"
        },
        {
          "internalType": "string",
          "name": "viceName",
          "type": "string"
        },
        {
          "internalType": "string",
          "name": "vision",
          "type": "string"
        },
        {
          "internalType": "string",
          "name": "mission",
          "type": "string"
        },
        {
          "internalType": "uint256",
          "name": "voteCount",
          "type": "uint256"
        }
      ],
      "payable": false,
      "stateMutability": "view",
      "type": "function"
    },
    {
      "constant": true,
      "inputs": [],
      "name": "candidatesCount",
      "outputs": [
        {
          "internalType": "uint256",
          "name": "",
          "type": "uint256"
        }
      ],
      "payable": false,
      "stateMutability": "view",
      "type": "function"
    },
    {
      "constant": true,
      "inputs": [
        {
          "internalType": "address",
          "name": "",
          "type": "address"
        }
      ],
      "name": "hasVoted",
      "outputs": [
        {
          "internalType": "bool",
          "name": "",
          "type": "bool"
        }
      ],
      "payable": false,
      "stateMutability": "view",
      "type": "function"
    },
    {
      "constant": true,
      "inputs": [],
      "name": "provinsiCount",
      "outputs": [
        {
          "internalType": "uint256",
          "name": "",
          "type": "uint256"
        }
      ],
      "payable": false,
      "stateMutability": "view",
      "type": "function"
    },
    {
      "constant": true,
      "inputs": [
        {
          "internalType": "uint256",
          "name": "",
          "type": "uint256"
        }
      ],
      "name": "provinsiList",
      "outputs": [
        {
          "internalType": "uint256",
          "name": "id",
          "type": "uint256"
        },
        {
          "internalType": "string",
          "name": "name",
          "type": "string"
        },
        {
          "internalType": "uint256",
          "name": "kabupatenKotaCount",
          "type": "uint256"
        }
      ],
      "payable": false,
      "stateMutability": "view",
      "type": "function"
    },
    {
      "constant": false,
      "inputs": [
        {
          "internalType": "string",
          "name": "leadName",
          "type": "string"
        },
        {
          "internalType": "string",
          "name": "viceName",
          "type": "string"
        },
        {
          "internalType": "string",
          "name": "vision",
          "type": "string"
        },
        {
          "internalType": "string",
          "name": "mission",
          "type": "string"
        }
      ],
      "name": "addCandidate",
      "outputs": [],
      "payable": false,
      "stateMutability": "nonpayable",
      "type": "function"
    },
    {
      "constant": true,
      "inputs": [],
      "name": "getCandidates",
      "outputs": [
        {
          "components": [
            {
              "internalType": "uint256",
              "name": "id",
              "type": "uint256"
            },
            {
              "internalType": "string",
              "name": "leadName",
              "type": "string"
            },
            {
              "internalType": "string",
              "name": "viceName",
              "type": "string"
            },
            {
              "internalType": "string",
              "name": "vision",
              "type": "string"
            },
            {
              "internalType": "string",
              "name": "mission",
              "type": "string"
            },
            {
              "internalType": "uint256",
              "name": "voteCount",
              "type": "uint256"
            }
          ],
          "internalType": "struct Election.Candidate[]",
          "name": "",
          "type": "tuple[]"
        }
      ],
      "payable": false,
      "stateMutability": "view",
      "type": "function"
    },
    {
      "constant": true,
      "inputs": [],
      "name": "getTesting",
      "outputs": [
        {
          "internalType": "bool",
          "name": "",
          "type": "bool"
        }
      ],
      "payable": false,
      "stateMutability": "view",
      "type": "function"
    },
    {
      "constant": false,
      "inputs": [
        {
          "internalType": "uint256",
          "name": "kelurahanId",
          "type": "uint256"
        },
        {
          "internalType": "uint256",
          "name": "kecamatanId",
          "type": "uint256"
        },
        {
          "internalType": "uint256",
          "name": "kabupatenKotaId",
          "type": "uint256"
        },
        {
          "internalType": "uint256",
          "name": "provinsiId",
          "type": "uint256"
        },
        {
          "internalType": "string",
          "name": "name",
          "type": "string"
        }
      ],
      "name": "addTPS",
      "outputs": [],
      "payable": false,
      "stateMutability": "nonpayable",
      "type": "function"
    },
    {
      "constant": false,
      "inputs": [
        {
          "internalType": "uint256",
          "name": "kecamatanId",
          "type": "uint256"
        },
        {
          "internalType": "uint256",
          "name": "kabupatenKotaId",
          "type": "uint256"
        },
        {
          "internalType": "uint256",
          "name": "provinsiId",
          "type": "uint256"
        },
        {
          "internalType": "string",
          "name": "name",
          "type": "string"
        }
      ],
      "name": "addKelurahan",
      "outputs": [],
      "payable": false,
      "stateMutability": "nonpayable",
      "type": "function"
    },
    {
      "constant": false,
      "inputs": [
        {
          "internalType": "uint256",
          "name": "kabupatenKotaId",
          "type": "uint256"
        },
        {
          "internalType": "uint256",
          "name": "provinsiId",
          "type": "uint256"
        },
        {
          "internalType": "string",
          "name": "name",
          "type": "string"
        }
      ],
      "name": "addKecamatan",
      "outputs": [],
      "payable": false,
      "stateMutability": "nonpayable",
      "type": "function"
    },
    {
      "constant": false,
      "inputs": [
        {
          "internalType": "uint256",
          "name": "provinsiId",
          "type": "uint256"
        },
        {
          "internalType": "string",
          "name": "name",
          "type": "string"
        }
      ],
      "name": "addKabupatenKota",
      "outputs": [],
      "payable": false,
      "stateMutability": "nonpayable",
      "type": "function"
    },
    {
      "constant": false,
      "inputs": [
        {
          "internalType": "string",
          "name": "name",
          "type": "string"
        }
      ],
      "name": "addProvinsi",
      "outputs": [],
      "payable": false,
      "stateMutability": "nonpayable",
      "type": "function"
    },
    {
      "constant": false,
      "inputs": [
        {
          "internalType": "uint256",
          "name": "candidateId",
          "type": "uint256"
        },
        {
          "internalType": "uint256",
          "name": "tpsId",
          "type": "uint256"
        },
        {
          "internalType": "uint256",
          "name": "kelurahanId",
          "type": "uint256"
        },
        {
          "internalType": "uint256",
          "name": "kecamatanId",
          "type": "uint256"
        },
        {
          "internalType": "uint256",
          "name": "kabupatenKotaId",
          "type": "uint256"
        },
        {
          "internalType": "uint256",
          "name": "provinsiId",
          "type": "uint256"
        }
      ],
      "name": "vote",
      "outputs": [],
      "payable": false,
      "stateMutability": "nonpayable",
      "type": "function"
    }
  ],
  "bytecode": "0x608060405234801561001057600080fd5b50611b60806100206000396000f3fe608060405234801561001057600080fd5b5060043610610107576000357c010000000000000000000000000000000000000000000000000000000090048063619e8841116100a9578063a0af5ab811610083578063a0af5ab81461026d578063b596a2fe14610289578063c4dc0f0e146102a5578063feaf1048146102c357610107565b8063619e88411461021957806381cc4f1d146102355780639604b8ef1461025157610107565b80632d35a8a2116100e55780632d35a8a21461018c5780633477ee2e146101aa57806342b03cc9146101df5780635c4c0696146101fb57610107565b806306a49fce1461010c57806309eef43e1461012a57806315ac6eba1461015a575b600080fd5b6101146102df565b6040516101219190611842565b60405180910390f35b610144600480360361013f919081019061120c565b610617565b6040516101519190611864565b60405180910390f35b610174600480360361016f9190810190611339565b610637565b60405161018393929190611957565b60405180910390f35b6101946106f9565b6040516101a191906118bf565b60405180910390f35b6101c460048036036101bf9190810190611339565b6106ff565b6040516101d6969594939291906118da565b60405180910390f35b6101f960048036036101f49190810190611276565b61099b565b005b610203610a83565b6040516102109190611864565b60405180910390f35b610233600480360361022e9190810190611235565b610a8b565b005b61024f600480360361024a9190810190611498565b610b06565b005b61026b600480360361026691908101906113b6565b610bf3565b005b61028760048036036102829190810190611362565b610caa565b005b6102a3600480360361029e919081019061141d565b610d46565b005b6102ad610e18565b6040516102ba91906118bf565b60405180910390f35b6102dd60048036036102d89190810190611527565b610e1e565b005b60608060035460405190808252806020026020018201604052801561031e57816020015b61030b6110b3565b8152602001906001900390816103035790505b50905060008090505b60035481101561060f57600260008281526020019081526020016000206040518060c001604052908160008201548152602001600182018054600181600116156101000203166002900480601f0160208091040260200160405190810160405280929190818152602001828054600181600116156101000203166002900480156103f25780601f106103c7576101008083540402835291602001916103f2565b820191906000526020600020905b8154815290600101906020018083116103d557829003601f168201915b50505050508152602001600282018054600181600116156101000203166002900480601f0160208091040260200160405190810160405280929190818152602001828054600181600116156101000203166002900480156104945780601f1061046957610100808354040283529160200191610494565b820191906000526020600020905b81548152906001019060200180831161047757829003601f168201915b50505050508152602001600382018054600181600116156101000203166002900480601f0160208091040260200160405190810160405280929190818152602001828054600181600116156101000203166002900480156105365780601f1061050b57610100808354040283529160200191610536565b820191906000526020600020905b81548152906001019060200180831161051957829003601f168201915b50505050508152602001600482018054600181600116156101000203166002900480601f0160208091040260200160405190810160405280929190818152602001828054600181600116156101000203166002900480156105d85780601f106105ad576101008083540402835291602001916105d8565b820191906000526020600020905b8154815290600101906020018083116105bb57829003601f168201915b505050505081526020016005820154815250508282815181106105f757fe5b60200260200101819052508080600101915050610327565b508091505090565b60046020528060005260406000206000915054906101000a900460ff1681565b6000602052806000526040600020600091509050806000015490806001018054600181600116156101000203166002900480601f0160208091040260200160405190810160405280929190818152602001828054600181600116156101000203166002900480156106e95780601f106106be576101008083540402835291602001916106e9565b820191906000526020600020905b8154815290600101906020018083116106cc57829003601f168201915b5050505050908060030154905083565b60035481565b6002602052806000526040600020600091509050806000015490806001018054600181600116156101000203166002900480601f0160208091040260200160405190810160405280929190818152602001828054600181600116156101000203166002900480156107b15780601f10610786576101008083540402835291602001916107b1565b820191906000526020600020905b81548152906001019060200180831161079457829003601f168201915b505050505090806002018054600181600116156101000203166002900480601f01602080910402602001604051908101604052809291908181526020018280546001816001161561010002031660029004801561084f5780601f106108245761010080835404028352916020019161084f565b820191906000526020600020905b81548152906001019060200180831161083257829003601f168201915b505050505090806003018054600181600116156101000203166002900480601f0160208091040260200160405190810160405280929190818152602001828054600181600116156101000203166002900480156108ed5780601f106108c2576101008083540402835291602001916108ed565b820191906000526020600020905b8154815290600101906020018083116108d057829003601f168201915b505050505090806004018054600181600116156101000203166002900480601f01602080910402602001604051908101604052809291908181526020018280546001816001161561010002031660029004801561098b5780601f106109605761010080835404028352916020019161098b565b820191906000526020600020905b81548152906001019060200180831161096e57829003601f168201915b5050505050908060050154905086565b6003600081548092919060010191905055506040518060c0016040528060035481526020018581526020018481526020018381526020018281526020016000815250600260006003548152602001908152602001600020600082015181600001556020820151816001019080519060200190610a189291906110e9565b506040820151816002019080519060200190610a359291906110e9565b506060820151816003019080519060200190610a529291906110e9565b506080820151816004019080519060200190610a6f9291906110e9565b5060a0820151816005015590505050505050565b600080905090565b6001600081548092919060010191905055506040518060600160405280600154815260200182815260200160008152506000806001548152602001908152602001600020600082015181600001556020820151816001019080519060200190610af59291906110e9565b506040820151816003015590505050565b60008060008481526020019081526020016000209050600081600201600086815260200190815260200160002090506000816002016000888152602001908152602001600020905060008160020160008a815260200190815260200160002090508060030160008154809291906001019190505550604051806060016040528082600301548152602001868152602001600081525081600201600083600301548152602001908152602001600020600082015181600001556020820151816001019080519060200190610bda9291906110e9565b5060408201518160030155905050505050505050505050565b60008060008481526020019081526020016000209050600081600201600086815260200190815260200160002090508060030160008154809291906001019190505550604051806060016040528082600301548152602001848152602001600081525081600201600083600301548152602001908152602001600020600082015181600001556020820151816001019080519060200190610c959291906110e9565b50604082015181600301559050505050505050565b600080600084815260200190815260200160002090508060030160008154809291906001019190505550604051806060016040528082600301548152602001838152602001600081525081600201600083600301548152602001908152602001600020600082015181600001556020820151816001019080519060200190610d339291906110e9565b5060408201518160030155905050505050565b6000806000848152602001908152602001600020905060008160020160008681526020019081526020016000209050600081600201600088815260200190815260200160002090508060030160008154809291906001019190505550604051806060016040528082600301548152602001858152602001600081525081600201600083600301548152602001908152602001600020600082015181600001556020820151816001019080519060200190610e019291906110e9565b506040820151816003015590505050505050505050565b60015481565b600460003373ffffffffffffffffffffffffffffffffffffffff1673ffffffffffffffffffffffffffffffffffffffff16815260200190815260200160002060009054906101000a900460ff1615610eab576040517f08c379a0000000000000000000000000000000000000000000000000000000008152600401610ea29061187f565b60405180910390fd5b600060026000888152602001908152602001600020905060008060008481526020019081526020016000209050600081600201600086815260200190815260200160002090506000816002016000888152602001908152602001600020905060008160020160008a8152602001908152602001600020905060008160020160008c815260200190815260200160002090508060020160003373ffffffffffffffffffffffffffffffffffffffff1673ffffffffffffffffffffffffffffffffffffffff16815260200190815260200160002060009054906101000a900460ff1615610fcb576040517f08c379a0000000000000000000000000000000000000000000000000000000008152600401610fc29061189f565b60405180910390fd5b60018160020160003373ffffffffffffffffffffffffffffffffffffffff1673ffffffffffffffffffffffffffffffffffffffff16815260200190815260200160002060006101000a81548160ff021916908315150217905550806003016000815480929190600101919050555085600501600081548092919060010191905055506001600460003373ffffffffffffffffffffffffffffffffffffffff1673ffffffffffffffffffffffffffffffffffffffff16815260200190815260200160002060006101000a81548160ff021916908315150217905550505050505050505050505050565b6040518060c001604052806000815260200160608152602001606081526020016060815260200160608152602001600081525090565b828054600181600116156101000203166002900490600052602060002090601f016020900481019282601f1061112a57805160ff1916838001178555611158565b82800160010185558215611158579182015b8281111561115757825182559160200191906001019061113c565b5b5090506111659190611169565b5090565b61118b91905b8082111561118757600081600090555060010161116f565b5090565b90565b60008135905061119d81611aef565b92915050565b600082601f8301126111b457600080fd5b81356111c76111c2826119c2565b611995565b915080825260208301602083018583830111156111e357600080fd5b6111ee838284611a9c565b50505092915050565b60008135905061120681611b06565b92915050565b60006020828403121561121e57600080fd5b600061122c8482850161118e565b91505092915050565b60006020828403121561124757600080fd5b600082013567ffffffffffffffff81111561126157600080fd5b61126d848285016111a3565b91505092915050565b6000806000806080858703121561128c57600080fd5b600085013567ffffffffffffffff8111156112a657600080fd5b6112b2878288016111a3565b945050602085013567ffffffffffffffff8111156112cf57600080fd5b6112db878288016111a3565b935050604085013567ffffffffffffffff8111156112f857600080fd5b611304878288016111a3565b925050606085013567ffffffffffffffff81111561132157600080fd5b61132d878288016111a3565b91505092959194509250565b60006020828403121561134b57600080fd5b6000611359848285016111f7565b91505092915050565b6000806040838503121561137557600080fd5b6000611383858286016111f7565b925050602083013567ffffffffffffffff8111156113a057600080fd5b6113ac858286016111a3565b9150509250929050565b6000806000606084860312156113cb57600080fd5b60006113d9868287016111f7565b93505060206113ea868287016111f7565b925050604084013567ffffffffffffffff81111561140757600080fd5b611413868287016111a3565b9150509250925092565b6000806000806080858703121561143357600080fd5b6000611441878288016111f7565b9450506020611452878288016111f7565b9350506040611463878288016111f7565b925050606085013567ffffffffffffffff81111561148057600080fd5b61148c878288016111a3565b91505092959194509250565b600080600080600060a086880312156114b057600080fd5b60006114be888289016111f7565b95505060206114cf888289016111f7565b94505060406114e0888289016111f7565b93505060606114f1888289016111f7565b925050608086013567ffffffffffffffff81111561150e57600080fd5b61151a888289016111a3565b9150509295509295909350565b60008060008060008060c0878903121561154057600080fd5b600061154e89828a016111f7565b965050602061155f89828a016111f7565b955050604061157089828a016111f7565b945050606061158189828a016111f7565b935050608061159289828a016111f7565b92505060a06115a389828a016111f7565b9150509295509295509295565b60006115bc8383611786565b905092915050565b60006115cf826119fe565b6115d98185611a21565b9350836020820285016115eb856119ee565b8060005b85811015611627578484038952815161160885826115b0565b945061161383611a14565b925060208a019950506001810190506115ef565b50829750879550505050505092915050565b61164281611a66565b82525050565b600061165382611a09565b61165d8185611a32565b935061166d818560208601611aab565b61167681611ade565b840191505092915050565b600061168c82611a09565b6116968185611a43565b93506116a6818560208601611aab565b6116af81611ade565b840191505092915050565b60006116c7602783611a43565b91507f596f75206861766520616c726561647920766f74656420696e2074686973206560008301527f6c656374696f6e000000000000000000000000000000000000000000000000006020830152604082019050919050565b600061172d602283611a43565b91507f596f75206861766520616c726561647920766f74656420696e2074686973205460008301527f50530000000000000000000000000000000000000000000000000000000000006020830152604082019050919050565b600060c08301600083015161179e6000860182611824565b50602083015184820360208601526117b68282611648565b915050604083015184820360408601526117d08282611648565b915050606083015184820360608601526117ea8282611648565b915050608083015184820360808601526118048282611648565b91505060a083015161181960a0860182611824565b508091505092915050565b61182d81611a92565b82525050565b61183c81611a92565b82525050565b6000602082019050818103600083015261185c81846115c4565b905092915050565b60006020820190506118796000830184611639565b92915050565b60006020820190508181036000830152611898816116ba565b9050919050565b600060208201905081810360008301526118b881611720565b9050919050565b60006020820190506118d46000830184611833565b92915050565b600060c0820190506118ef6000830189611833565b81810360208301526119018188611681565b905081810360408301526119158187611681565b905081810360608301526119298186611681565b9050818103608083015261193d8185611681565b905061194c60a0830184611833565b979650505050505050565b600060608201905061196c6000830186611833565b818103602083015261197e8185611681565b905061198d6040830184611833565b949350505050565b6000604051905081810181811067ffffffffffffffff821117156119b857600080fd5b8060405250919050565b600067ffffffffffffffff8211156119d957600080fd5b601f19601f8301169050602081019050919050565b6000819050602082019050919050565b600081519050919050565b600081519050919050565b6000602082019050919050565b600082825260208201905092915050565b600082825260208201905092915050565b600082825260208201905092915050565b6000611a5f82611a72565b9050919050565b60008115159050919050565b600073ffffffffffffffffffffffffffffffffffffffff82169050919050565b6000819050919050565b82818337600083830152505050565b60005b83811015611ac9578082015181840152602081019050611aae565b83811115611ad8576000848401525b50505050565b6000601f19601f8301169050919050565b611af881611a54565b8114611b0357600080fd5b50565b611b0f81611a92565b8114611b1a57600080fd5b5056fea365627a7a723158206c760a4a380695d01042e2ad3026d9ca95815387cb94344ec318a45fd722e5886c6578706572696d656e74616cf564736f6c63430005100040",
  "source": "// SPDX-License-Identifier: MIT\npragma solidity >=0.4.22 <0.9.0;\npragma experimental ABIEncoderV2;\n\ncontract Election {\n  struct Candidate {\n    uint id;\n    string leadName;\n    string viceName;\n    string vision;\n    string mission;\n    uint voteCount;\n  }\n\n  struct TPS {\n    uint id;\n    string name;\n    mapping(address => bool) voters;\n    uint voterCount;\n  }\n\n  struct Kelurahan {\n    uint id;\n    string name;\n    mapping(uint => TPS) tpsList;\n    uint tpsCount;\n  }\n\n  struct Kecamatan {\n    uint id;\n    string name;\n    mapping(uint => Kelurahan) kelurahanList;\n    uint kelurahanCount;\n  }\n\n  struct KabupatenKota {\n    uint id;\n    string name;\n    mapping(uint => Kecamatan) kecamatanList;\n    uint kecamatanCount;\n  }\n\n  struct Provinsi {\n    uint id;\n    string name;\n    mapping(uint => KabupatenKota) kabupatenKotaList;\n    uint kabupatenKotaCount;\n  }\n\n  mapping(uint => Provinsi) public provinsiList;\n  uint public provinsiCount;\n  mapping(uint => Candidate) public candidates;\n  uint public candidatesCount;\n\n  mapping(address => bool) public hasVoted;\n\n  function addCandidate(\n    string memory leadName,\n    string memory viceName,\n    string memory vision,\n    string memory mission\n  ) public {\n    candidatesCount++;\n    candidates[candidatesCount] = Candidate(\n      candidatesCount,\n      leadName,\n      viceName,\n      vision,\n      mission,\n      0\n    );\n  }\n\n  function getCandidates() public view returns (Candidate[] memory) {\n    Candidate[] memory candidateList = new Candidate[](candidatesCount);\n    for (uint i = 0; i < candidatesCount; i++) {\n      candidateList[i] = candidates[i];\n    }\n    return candidateList;\n  }\n\n  function getTesting() public view returns (bool) {\n    return false;\n  }\n\n  function addTPS(uint kelurahanId, uint kecamatanId, uint kabupatenKotaId, uint provinsiId, string memory name) public {\n    Provinsi storage provinsi = provinsiList[provinsiId];\n    KabupatenKota storage kabupatenKota = provinsi.kabupatenKotaList[kabupatenKotaId];\n    Kecamatan storage kecamatan = kabupatenKota.kecamatanList[kecamatanId];\n    Kelurahan storage kelurahan = kecamatan.kelurahanList[kelurahanId];\n\n    kelurahan.tpsCount++;\n    kelurahan.tpsList[kelurahan.tpsCount] = TPS(kelurahan.tpsCount, name, 0);\n  }\n\n  function addKelurahan(uint kecamatanId, uint kabupatenKotaId, uint provinsiId, string memory name) public {\n    Provinsi storage provinsi = provinsiList[provinsiId];\n    KabupatenKota storage kabupatenKota = provinsi.kabupatenKotaList[kabupatenKotaId];\n    Kecamatan storage kecamatan = kabupatenKota.kecamatanList[kecamatanId];\n\n    kecamatan.kelurahanCount++;\n    kecamatan.kelurahanList[kecamatan.kelurahanCount] = Kelurahan(kecamatan.kelurahanCount, name, 0);\n  }\n\n  function addKecamatan(uint kabupatenKotaId, uint provinsiId, string memory name) public {\n    Provinsi storage provinsi = provinsiList[provinsiId];\n    KabupatenKota storage kabupatenKota = provinsi.kabupatenKotaList[kabupatenKotaId];\n\n    kabupatenKota.kecamatanCount++;\n    kabupatenKota.kecamatanList[kabupatenKota.kecamatanCount] = Kecamatan(kabupatenKota.kecamatanCount, name, 0);\n  }\n\n  function addKabupatenKota(uint provinsiId, string memory name) public {\n    Provinsi storage provinsi = provinsiList[provinsiId];\n\n    provinsi.kabupatenKotaCount++;\n    provinsi.kabupatenKotaList[provinsi.kabupatenKotaCount] = KabupatenKota(provinsi.kabupatenKotaCount, name, 0);\n  }\n\n  function addProvinsi(string memory name) public {\n    provinsiCount++;\n    provinsiList[provinsiCount] = Provinsi(provinsiCount, name, 0);\n  }\n\n  function vote(uint candidateId, uint tpsId, uint kelurahanId, uint kecamatanId, uint kabupatenKotaId, uint provinsiId) public {\n    require(!hasVoted[msg.sender], \"You have already voted in this election\");\n\n    Candidate storage candidate = candidates[candidateId];\n\n    Provinsi storage provinsi = provinsiList[provinsiId];\n    KabupatenKota storage kabupatenKota = provinsi.kabupatenKotaList[kabupatenKotaId];\n    Kecamatan storage kecamatan = kabupatenKota.kecamatanList[kecamatanId];\n    Kelurahan storage kelurahan = kecamatan.kelurahanList[kelurahanId];\n    TPS storage tps = kelurahan.tpsList[tpsId];\n\n    require(!tps.voters[msg.sender], \"You have already voted in this TPS\");\n\n    tps.voters[msg.sender] = true;\n    tps.voterCount++;\n    candidate.voteCount++;\n\n    hasVoted[msg.sender] = true;\n  }\n}\n",
  "sourcePath": "D:\\Projects\\votechain\\contracts\\Election.sol",
  "compiler": {
    "name": "solc",
    "version": "0.5.16+commit.9c3226ce.Emscripten.clang"
  },
  "schemaVersion": "3.4.16",
  "updatedAt": "2024-05-17T03:00:23.618Z",
  "devdoc": {
    "methods": {}
  },
  "userdoc": {
    "methods": {}
  }
}