{
  "contractName": "Election",
  "abi": [
    {
      "inputs": [],
      "payable": false,
      "stateMutability": "nonpayable",
      "type": "constructor"
    },
    {
      "constant": true,
      "inputs": [
        {
          "internalType": "uint256",
          "name": "",
          "type": "uint256"
        }
      ],
      "name": "candidates",
      "outputs": [
        {
          "internalType": "uint256",
          "name": "id",
          "type": "uint256"
        },
        {
          "internalType": "string",
          "name": "leadName",
          "type": "string"
        },
        {
          "internalType": "string",
          "name": "viceName",
          "type": "string"
        },
        {
          "internalType": "string",
          "name": "imageUrl",
          "type": "string"
        },
        {
          "internalType": "string",
          "name": "vision",
          "type": "string"
        },
        {
          "internalType": "string",
          "name": "mission",
          "type": "string"
        },
        {
          "internalType": "uint256",
          "name": "voteCount",
          "type": "uint256"
        }
      ],
      "payable": false,
      "stateMutability": "view",
      "type": "function"
    },
    {
      "constant": true,
      "inputs": [],
      "name": "candidatesCount",
      "outputs": [
        {
          "internalType": "uint256",
          "name": "",
          "type": "uint256"
        }
      ],
      "payable": false,
      "stateMutability": "view",
      "type": "function"
    },
    {
      "constant": true,
      "inputs": [],
      "name": "kecamatanCount",
      "outputs": [
        {
          "internalType": "uint256",
          "name": "",
          "type": "uint256"
        }
      ],
      "payable": false,
      "stateMutability": "view",
      "type": "function"
    },
    {
      "constant": true,
      "inputs": [
        {
          "internalType": "uint256",
          "name": "",
          "type": "uint256"
        }
      ],
      "name": "kecamatanData",
      "outputs": [
        {
          "internalType": "uint256",
          "name": "id",
          "type": "uint256"
        },
        {
          "internalType": "string",
          "name": "name",
          "type": "string"
        },
        {
          "internalType": "uint256",
          "name": "kotaId",
          "type": "uint256"
        },
        {
          "internalType": "uint256",
          "name": "voteCount",
          "type": "uint256"
        }
      ],
      "payable": false,
      "stateMutability": "view",
      "type": "function"
    },
    {
      "constant": true,
      "inputs": [],
      "name": "kelurahanCount",
      "outputs": [
        {
          "internalType": "uint256",
          "name": "",
          "type": "uint256"
        }
      ],
      "payable": false,
      "stateMutability": "view",
      "type": "function"
    },
    {
      "constant": true,
      "inputs": [
        {
          "internalType": "uint256",
          "name": "",
          "type": "uint256"
        }
      ],
      "name": "kelurahanData",
      "outputs": [
        {
          "internalType": "uint256",
          "name": "id",
          "type": "uint256"
        },
        {
          "internalType": "string",
          "name": "name",
          "type": "string"
        },
        {
          "internalType": "uint256",
          "name": "kecamatanId",
          "type": "uint256"
        },
        {
          "internalType": "uint256",
          "name": "voteCount",
          "type": "uint256"
        }
      ],
      "payable": false,
      "stateMutability": "view",
      "type": "function"
    },
    {
      "constant": true,
      "inputs": [],
      "name": "kotaCount",
      "outputs": [
        {
          "internalType": "uint256",
          "name": "",
          "type": "uint256"
        }
      ],
      "payable": false,
      "stateMutability": "view",
      "type": "function"
    },
    {
      "constant": true,
      "inputs": [
        {
          "internalType": "uint256",
          "name": "",
          "type": "uint256"
        }
      ],
      "name": "kotaData",
      "outputs": [
        {
          "internalType": "uint256",
          "name": "id",
          "type": "uint256"
        },
        {
          "internalType": "string",
          "name": "name",
          "type": "string"
        },
        {
          "internalType": "uint256",
          "name": "provinsiId",
          "type": "uint256"
        },
        {
          "internalType": "uint256",
          "name": "voteCount",
          "type": "uint256"
        }
      ],
      "payable": false,
      "stateMutability": "view",
      "type": "function"
    },
    {
      "constant": true,
      "inputs": [],
      "name": "provinsiCount",
      "outputs": [
        {
          "internalType": "uint256",
          "name": "",
          "type": "uint256"
        }
      ],
      "payable": false,
      "stateMutability": "view",
      "type": "function"
    },
    {
      "constant": true,
      "inputs": [
        {
          "internalType": "uint256",
          "name": "",
          "type": "uint256"
        }
      ],
      "name": "provinsiData",
      "outputs": [
        {
          "internalType": "uint256",
          "name": "id",
          "type": "uint256"
        },
        {
          "internalType": "string",
          "name": "name",
          "type": "string"
        },
        {
          "internalType": "uint256",
          "name": "voteCount",
          "type": "uint256"
        }
      ],
      "payable": false,
      "stateMutability": "view",
      "type": "function"
    },
    {
      "constant": true,
      "inputs": [],
      "name": "tpsCount",
      "outputs": [
        {
          "internalType": "uint256",
          "name": "",
          "type": "uint256"
        }
      ],
      "payable": false,
      "stateMutability": "view",
      "type": "function"
    },
    {
      "constant": true,
      "inputs": [
        {
          "internalType": "uint256",
          "name": "",
          "type": "uint256"
        }
      ],
      "name": "tpsData",
      "outputs": [
        {
          "internalType": "uint256",
          "name": "id",
          "type": "uint256"
        },
        {
          "internalType": "string",
          "name": "name",
          "type": "string"
        },
        {
          "internalType": "uint256",
          "name": "kelurahanId",
          "type": "uint256"
        },
        {
          "internalType": "uint256",
          "name": "voteCount",
          "type": "uint256"
        },
        {
          "internalType": "bytes32",
          "name": "lastVoteHash",
          "type": "bytes32"
        }
      ],
      "payable": false,
      "stateMutability": "view",
      "type": "function"
    },
    {
      "constant": false,
      "inputs": [
        {
          "internalType": "string",
          "name": "_leadName",
          "type": "string"
        },
        {
          "internalType": "string",
          "name": "_viceName",
          "type": "string"
        },
        {
          "internalType": "string",
          "name": "_imageUrl",
          "type": "string"
        },
        {
          "internalType": "string",
          "name": "_vision",
          "type": "string"
        },
        {
          "internalType": "string",
          "name": "_mission",
          "type": "string"
        }
      ],
      "name": "addCandidate",
      "outputs": [],
      "payable": false,
      "stateMutability": "nonpayable",
      "type": "function"
    },
    {
      "constant": false,
      "inputs": [
        {
          "internalType": "string",
          "name": "_name",
          "type": "string"
        },
        {
          "internalType": "uint256",
          "name": "_kelurahanId",
          "type": "uint256"
        }
      ],
      "name": "addTPS",
      "outputs": [],
      "payable": false,
      "stateMutability": "nonpayable",
      "type": "function"
    },
    {
      "constant": false,
      "inputs": [
        {
          "internalType": "uint256",
          "name": "_candidateId",
          "type": "uint256"
        },
        {
          "internalType": "uint256",
          "name": "_tpsId",
          "type": "uint256"
        }
      ],
      "name": "vote",
      "outputs": [],
      "payable": false,
      "stateMutability": "nonpayable",
      "type": "function"
    },
    {
      "constant": false,
      "inputs": [
        {
          "internalType": "string",
          "name": "_name",
          "type": "string"
        },
        {
          "internalType": "uint256",
          "name": "_kecamatanId",
          "type": "uint256"
        }
      ],
      "name": "addKelurahan",
      "outputs": [],
      "payable": false,
      "stateMutability": "nonpayable",
      "type": "function"
    },
    {
      "constant": false,
      "inputs": [
        {
          "internalType": "string",
          "name": "_name",
          "type": "string"
        },
        {
          "internalType": "uint256",
          "name": "_kotaId",
          "type": "uint256"
        }
      ],
      "name": "addKecamatan",
      "outputs": [],
      "payable": false,
      "stateMutability": "nonpayable",
      "type": "function"
    },
    {
      "constant": false,
      "inputs": [
        {
          "internalType": "string",
          "name": "_name",
          "type": "string"
        },
        {
          "internalType": "uint256",
          "name": "_provinsiId",
          "type": "uint256"
        }
      ],
      "name": "addKota",
      "outputs": [],
      "payable": false,
      "stateMutability": "nonpayable",
      "type": "function"
    },
    {
      "constant": false,
      "inputs": [
        {
          "internalType": "string",
          "name": "_name",
          "type": "string"
        }
      ],
      "name": "addProvinsi",
      "outputs": [],
      "payable": false,
      "stateMutability": "nonpayable",
      "type": "function"
    },
    {
      "constant": true,
      "inputs": [
        {
          "internalType": "uint256",
          "name": "_tpsId",
          "type": "uint256"
        }
      ],
      "name": "validateVotes",
      "outputs": [
        {
          "internalType": "bool",
          "name": "",
          "type": "bool"
        }
      ],
      "payable": false,
      "stateMutability": "view",
      "type": "function"
    },
    {
      "constant": false,
      "inputs": [],
      "name": "calculateVotes",
      "outputs": [],
      "payable": false,
      "stateMutability": "nonpayable",
      "type": "function"
    },
    {
      "constant": false,
      "inputs": [],
      "name": "getWinner",
      "outputs": [
        {
          "components": [
            {
              "internalType": "uint256",
              "name": "id",
              "type": "uint256"
            },
            {
              "internalType": "string",
              "name": "leadName",
              "type": "string"
            },
            {
              "internalType": "string",
              "name": "viceName",
              "type": "string"
            },
            {
              "internalType": "string",
              "name": "imageUrl",
              "type": "string"
            },
            {
              "internalType": "string",
              "name": "vision",
              "type": "string"
            },
            {
              "internalType": "string",
              "name": "mission",
              "type": "string"
            },
            {
              "internalType": "uint256",
              "name": "voteCount",
              "type": "uint256"
            }
          ],
          "internalType": "struct Election.Candidate",
          "name": "",
          "type": "tuple"
        }
      ],
      "payable": false,
      "stateMutability": "nonpayable",
      "type": "function"
    },
    {
      "constant": true,
      "inputs": [],
      "name": "getCandidates",
      "outputs": [
        {
          "components": [
            {
              "internalType": "uint256",
              "name": "id",
              "type": "uint256"
            },
            {
              "internalType": "string",
              "name": "leadName",
              "type": "string"
            },
            {
              "internalType": "string",
              "name": "viceName",
              "type": "string"
            },
            {
              "internalType": "string",
              "name": "imageUrl",
              "type": "string"
            },
            {
              "internalType": "string",
              "name": "vision",
              "type": "string"
            },
            {
              "internalType": "string",
              "name": "mission",
              "type": "string"
            },
            {
              "internalType": "uint256",
              "name": "voteCount",
              "type": "uint256"
            }
          ],
          "internalType": "struct Election.Candidate[]",
          "name": "",
          "type": "tuple[]"
        }
      ],
      "payable": false,
      "stateMutability": "view",
      "type": "function"
    },
    {
      "constant": true,
      "inputs": [
        {
          "internalType": "uint256",
          "name": "_tpsId",
          "type": "uint256"
        }
      ],
      "name": "getTPSVotes",
      "outputs": [
        {
          "components": [
            {
              "internalType": "uint256",
              "name": "candidateId",
              "type": "uint256"
            },
            {
              "internalType": "address",
              "name": "voter",
              "type": "address"
            },
            {
              "internalType": "bytes32",
              "name": "previousVoteHash",
              "type": "bytes32"
            }
          ],
          "internalType": "struct Election.Vote[]",
          "name": "",
          "type": "tuple[]"
        }
      ],
      "payable": false,
      "stateMutability": "view",
      "type": "function"
    }
  ],
  "bytecode": "0x608060405234801561001057600080fd5b50600060018190555060006003819055506000600581905550600060078190555060006009819055506000600b8190555061315c806100506000396000f3fe608060405234801561001057600080fd5b5060043610610175576000357c0100000000000000000000000000000000000000000000000000000000900480639e755a6c116100e0578063c047c43d11610099578063c047c43d146103f4578063c4749d1014610426578063c4dc0f0e14610459578063d78b9cc214610477578063d808d53c14610493578063f2ba18ed146104c357610175565b80639e755a6c1461031a578063ab6dcfc914610336578063b384abef14610354578063b7fe089b14610370578063bbf39872146103a3578063c02a975c146103d657610175565b8063619e884111610132578063619e8841146102585780637be836e714610274578063815123fa1461029257806382a2aed4146102c25780638e7ea5b2146102e0578063945ddfb9146102fe57610175565b8063049ee1a81461017a57806306a49fce146101ae57806320d72642146101cc5780632d35a8a2146101e85780633477ee2e146102065780635a3290231461023c575b600080fd5b610194600480360361018f91908101906126e0565b6104cd565b6040516101a5959493929190612e96565b60405180910390f35b6101b661059b565b6040516101c39190612c7e565b60405180910390f35b6101e660048036036101e1919081019061268c565b610977565b005b6101f0610a35565b6040516101fd9190612d5f565b60405180910390f35b610220600480360361021b91908101906126e0565b610a3b565b6040516102339796959493929190612d7a565b60405180910390f35b6102566004803603610251919081019061268c565b610d75565b005b610272600480360361026d919081019061255c565b610e02565b005b61027c610e7e565b6040516102899190612d5f565b60405180910390f35b6102ac60048036036102a791908101906126e0565b610e84565b6040516102b99190612ca0565b60405180910390f35b6102ca610ff7565b6040516102d79190612d5f565b60405180910390f35b6102e8610ffd565b6040516102f59190612d3d565b60405180910390f35b6103186004803603610313919081019061259d565b611717565b005b610334600480360361032f919081019061268c565b611847565b005b61033e6118d4565b60405161034b9190612d5f565b60405180910390f35b61036e60048036036103699190810190612709565b6118da565b005b61038a600480360361038591908101906126e0565b611bb0565b60405161039a9493929190612e4a565b60405180910390f35b6103bd60048036036103b891908101906126e0565b611c78565b6040516103cd9493929190612e4a565b60405180910390f35b6103de611d40565b6040516103eb9190612d5f565b60405180910390f35b61040e600480360361040991908101906126e0565b611d46565b60405161041d93929190612e0c565b60405180910390f35b610440600480360361043b91908101906126e0565b611e08565b6040516104509493929190612e4a565b60405180910390f35b610461611ed0565b60405161046e9190612d5f565b60405180910390f35b610491600480360361048c919081019061268c565b611ed6565b005b6104ad60048036036104a891908101906126e0565b611f63565b6040516104ba9190612cc2565b60405180910390f35b6104cb6120c6565b005b6002602052806000526040600020600091509050806000015490806001018054600181600116156101000203166002900480601f01602080910402602001604051908101604052809291908181526020018280546001816001161561010002031660029004801561057f5780601f106105545761010080835404028352916020019161057f565b820191906000526020600020905b81548152906001019060200180831161056257829003601f168201915b5050505050908060020154908060030154908060040154905085565b6060806001546040519080825280602002602001820160405280156105da57816020015b6105c76122e0565b8152602001906001900390816105bf5790505b5090506000600190505b600154811161096f576000808281526020019081526020016000206040518060e001604052908160008201548152602001600182018054600181600116156101000203166002900480601f0160208091040260200160405190810160405280929190818152602001828054600181600116156101000203166002900480156106ad5780601f10610682576101008083540402835291602001916106ad565b820191906000526020600020905b81548152906001019060200180831161069057829003601f168201915b50505050508152602001600282018054600181600116156101000203166002900480601f01602080910402602001604051908101604052809291908181526020018280546001816001161561010002031660029004801561074f5780601f106107245761010080835404028352916020019161074f565b820191906000526020600020905b81548152906001019060200180831161073257829003601f168201915b50505050508152602001600382018054600181600116156101000203166002900480601f0160208091040260200160405190810160405280929190818152602001828054600181600116156101000203166002900480156107f15780601f106107c6576101008083540402835291602001916107f1565b820191906000526020600020905b8154815290600101906020018083116107d457829003601f168201915b50505050508152602001600482018054600181600116156101000203166002900480601f0160208091040260200160405190810160405280929190818152602001828054600181600116156101000203166002900480156108935780601f1061086857610100808354040283529160200191610893565b820191906000526020600020905b81548152906001019060200180831161087657829003601f168201915b50505050508152602001600582018054600181600116156101000203166002900480601f0160208091040260200160405190810160405280929190818152602001828054600181600116156101000203166002900480156109355780601f1061090a57610100808354040283529160200191610935565b820191906000526020600020905b81548152906001019060200180831161091857829003601f168201915b5050505050815260200160068201548152505082600183038151811061095757fe5b602002602001018190525080806001019150506105e4565b508091505090565b600360008154809291906001019190505550600354600260006003548152602001908152602001600020600001819055508160026000600354815260200190815260200160002060010190805190602001906109d492919061231d565b5080600260006003548152602001908152602001600020600201819055506000600260006003548152602001908152602001600020600301819055506000600102600260006003548152602001908152602001600020600401819055505050565b60015481565b6000602052806000526040600020600091509050806000015490806001018054600181600116156101000203166002900480601f016020809104026020016040519081016040528092919081815260200182805460018160011615610100020316600290048015610aed5780601f10610ac257610100808354040283529160200191610aed565b820191906000526020600020905b815481529060010190602001808311610ad057829003601f168201915b505050505090806002018054600181600116156101000203166002900480601f016020809104026020016040519081016040528092919081815260200182805460018160011615610100020316600290048015610b8b5780601f10610b6057610100808354040283529160200191610b8b565b820191906000526020600020905b815481529060010190602001808311610b6e57829003601f168201915b505050505090806003018054600181600116156101000203166002900480601f016020809104026020016040519081016040528092919081815260200182805460018160011615610100020316600290048015610c295780601f10610bfe57610100808354040283529160200191610c29565b820191906000526020600020905b815481529060010190602001808311610c0c57829003601f168201915b505050505090806004018054600181600116156101000203166002900480601f016020809104026020016040519081016040528092919081815260200182805460018160011615610100020316600290048015610cc75780601f10610c9c57610100808354040283529160200191610cc7565b820191906000526020600020905b815481529060010190602001808311610caa57829003601f168201915b505050505090806005018054600181600116156101000203166002900480601f016020809104026020016040519081016040528092919081815260200182805460018160011615610100020316600290048015610d655780601f10610d3a57610100808354040283529160200191610d65565b820191906000526020600020905b815481529060010190602001808311610d4857829003601f168201915b5050505050908060060154905087565b600960008154809291906001019190505550604051806080016040528060095481526020018381526020018281526020016000815250600860006009548152602001908152602001600020600082015181600001556020820151816001019080519060200190610de692919061239d565b5060408201518160020155606082015181600301559050505050565b600b600081548092919060010191905055506040518060600160405280600b5481526020018281526020016000815250600a6000600b548152602001908152602001600020600082015181600001556020820151816001019080519060200190610e6d92919061239d565b506040820151816002015590505050565b60035481565b6060600060026000848152602001908152602001600020600301549050606081604051908082528060200260200182016040528015610edd57816020015b610eca61241d565b815260200190600190039081610ec25790505b50905060006002600086815260200190815260200160002060040154905060008390505b6000811115610feb57600260008781526020019081526020016000206005016000838152602001908152602001600020604051806060016040529081600082015481526020016001820160009054906101000a900473ffffffffffffffffffffffffffffffffffffffff1673ffffffffffffffffffffffffffffffffffffffff1673ffffffffffffffffffffffffffffffffffffffff168152602001600282015481525050836001830381518110610fb557fe5b6020026020010181905250826001820381518110610fcf57fe5b6020026020010151604001519150808060019003915050610f01565b50819350505050919050565b60055481565b611005612457565b61100d6120c6565b611015612457565b600080600181526020019081526020016000206040518060e001604052908160008201548152602001600182018054600181600116156101000203166002900480601f0160208091040260200160405190810160405280929190818152602001828054600181600116156101000203166002900480156110d65780601f106110ab576101008083540402835291602001916110d6565b820191906000526020600020905b8154815290600101906020018083116110b957829003601f168201915b50505050508152602001600282018054600181600116156101000203166002900480601f0160208091040260200160405190810160405280929190818152602001828054600181600116156101000203166002900480156111785780601f1061114d57610100808354040283529160200191611178565b820191906000526020600020905b81548152906001019060200180831161115b57829003601f168201915b50505050508152602001600382018054600181600116156101000203166002900480601f01602080910402602001604051908101604052809291908181526020018280546001816001161561010002031660029004801561121a5780601f106111ef5761010080835404028352916020019161121a565b820191906000526020600020905b8154815290600101906020018083116111fd57829003601f168201915b50505050508152602001600482018054600181600116156101000203166002900480601f0160208091040260200160405190810160405280929190818152602001828054600181600116156101000203166002900480156112bc5780601f10611291576101008083540402835291602001916112bc565b820191906000526020600020905b81548152906001019060200180831161129f57829003601f168201915b50505050508152602001600582018054600181600116156101000203166002900480601f01602080910402602001604051908101604052809291908181526020018280546001816001161561010002031660029004801561135e5780601f106113335761010080835404028352916020019161135e565b820191906000526020600020905b81548152906001019060200180831161134157829003601f168201915b5050505050815260200160068201548152505090506000600290505b600154811161170f578160c00151600080838152602001908152602001600020600601541115611702576000808281526020019081526020016000206040518060e001604052908160008201548152602001600182018054600181600116156101000203166002900480601f0160208091040260200160405190810160405280929190818152602001828054600181600116156101000203166002900480156114645780601f1061143957610100808354040283529160200191611464565b820191906000526020600020905b81548152906001019060200180831161144757829003601f168201915b50505050508152602001600282018054600181600116156101000203166002900480601f0160208091040260200160405190810160405280929190818152602001828054600181600116156101000203166002900480156115065780601f106114db57610100808354040283529160200191611506565b820191906000526020600020905b8154815290600101906020018083116114e957829003601f168201915b50505050508152602001600382018054600181600116156101000203166002900480601f0160208091040260200160405190810160405280929190818152602001828054600181600116156101000203166002900480156115a85780601f1061157d576101008083540402835291602001916115a8565b820191906000526020600020905b81548152906001019060200180831161158b57829003601f168201915b50505050508152602001600482018054600181600116156101000203166002900480601f01602080910402602001604051908101604052809291908181526020018280546001816001161561010002031660029004801561164a5780601f1061161f5761010080835404028352916020019161164a565b820191906000526020600020905b81548152906001019060200180831161162d57829003601f168201915b50505050508152602001600582018054600181600116156101000203166002900480601f0160208091040260200160405190810160405280929190818152602001828054600181600116156101000203166002900480156116ec5780601f106116c1576101008083540402835291602001916116ec565b820191906000526020600020905b8154815290600101906020018083116116cf57829003601f168201915b5050505050815260200160068201548152505091505b808060010191505061137a565b508091505090565b600160008154809291906001019190505550600154600080600154815260200190815260200160002060000181905550846000806001548152602001908152602001600020600101908051906020019061177292919061231d565b50836000806001548152602001908152602001600020600201908051906020019061179e92919061231d565b5082600080600154815260200190815260200160002060030190805190602001906117ca92919061231d565b5081600080600154815260200190815260200160002060040190805190602001906117f692919061231d565b50806000806001548152602001908152602001600020600501908051906020019061182292919061231d565b5060008060006001548152602001908152602001600020600601819055505050505050565b6005600081548092919060010191905055506040518060800160405280600554815260200183815260200182815260200160008152506004600060055481526020019081526020016000206000820151816000015560208201518160010190805190602001906118b892919061239d565b5060408201518160020155606082015181600301559050505050565b60095481565b6002600082815260200190815260200160002060060160003373ffffffffffffffffffffffffffffffffffffffff1673ffffffffffffffffffffffffffffffffffffffff16815260200190815260200160002060009054906101000a900460ff161561197b576040517f08c379a000000000000000000000000000000000000000000000000000000000815260040161197290612cdd565b60405180910390fd5b60008211801561198d57506001548211155b6119cc576040517f08c379a00000000000000000000000000000000000000000000000000000000081526004016119c390612d1d565b60405180910390fd5b60006002600083815260200190815260200160002060040154905060008333836040516020016119fe93929190612c04565b604051602081830303815290604052805190602001209050611a1e612494565b60405180606001604052808681526020013373ffffffffffffffffffffffffffffffffffffffff168152602001848152509050806002600086815260200190815260200160002060050160008481526020019081526020016000206000820151816000015560208201518160010160006101000a81548173ffffffffffffffffffffffffffffffffffffffff021916908373ffffffffffffffffffffffffffffffffffffffff16021790555060408201518160020155905050816002600086815260200190815260200160002060040181905550600260008581526020019081526020016000206003016000815480929190600101919050555060016002600086815260200190815260200160002060060160003373ffffffffffffffffffffffffffffffffffffffff1673ffffffffffffffffffffffffffffffffffffffff16815260200190815260200160002060006101000a81548160ff021916908315150217905550600080868152602001908152602001600020600601600081548092919060010191905055505050505050565b6008602052806000526040600020600091509050806000015490806001018054600181600116156101000203166002900480601f016020809104026020016040519081016040528092919081815260200182805460018160011615610100020316600290048015611c625780601f10611c3757610100808354040283529160200191611c62565b820191906000526020600020905b815481529060010190602001808311611c4557829003601f168201915b5050505050908060020154908060030154905084565b6006602052806000526040600020600091509050806000015490806001018054600181600116156101000203166002900480601f016020809104026020016040519081016040528092919081815260200182805460018160011615610100020316600290048015611d2a5780601f10611cff57610100808354040283529160200191611d2a565b820191906000526020600020905b815481529060010190602001808311611d0d57829003601f168201915b5050505050908060020154908060030154905084565b60075481565b600a602052806000526040600020600091509050806000015490806001018054600181600116156101000203166002900480601f016020809104026020016040519081016040528092919081815260200182805460018160011615610100020316600290048015611df85780601f10611dcd57610100808354040283529160200191611df8565b820191906000526020600020905b815481529060010190602001808311611ddb57829003601f168201915b5050505050908060020154905083565b6004602052806000526040600020600091509050806000015490806001018054600181600116156101000203166002900480601f016020809104026020016040519081016040528092919081815260200182805460018160011615610100020316600290048015611eba5780601f10611e8f57610100808354040283529160200191611eba565b820191906000526020600020905b815481529060010190602001808311611e9d57829003601f168201915b5050505050908060020154908060030154905084565b600b5481565b600760008154809291906001019190505550604051806080016040528060075481526020018381526020018281526020016000815250600660006007548152602001908152602001600020600082015181600001556020820151816001019080519060200190611f4792919061239d565b5060408201518160020155606082015181600301559050505050565b6000806002600084815260200190815260200160002060030154905060008090506000600260008681526020019081526020016000206004015490505b600060010281146120ab57611fb3612494565b600260008781526020019081526020016000206005016000838152602001908152602001600020604051806060016040529081600082015481526020016001820160009054906101000a900473ffffffffffffffffffffffffffffffffffffffff1673ffffffffffffffffffffffffffffffffffffffff1673ffffffffffffffffffffffffffffffffffffffff1681526020016002820154815250509050600081600001518260200151836040015160405160200161207493929190612c41565b6040516020818303038152906040528051906020012090508281141561209d5783806001019450505b816040015192505050611fa0565b606460338402816120b857fe5b048210159350505050919050565b6000600190505b6003548111612181576120df81611f63565b61211e576040517f08c379a000000000000000000000000000000000000000000000000000000000815260040161211590612cfd565b60405180910390fd5b600060026000838152602001908152602001600020600201549050600260008381526020019081526020016000206003015460046000838152602001908152602001600020600301600082825401925050819055505080806001019150506120cd565b506000600190505b60055481116121f55760006004600083815260200190815260200160002060020154905060046000838152602001908152602001600020600301546006600083815260200190815260200160002060030160008282540192505081905550508080600101915050612189565b506000600190505b600754811161226957600060066000838152602001908152602001600020600201549050600660008381526020019081526020016000206003015460086000838152602001908152602001600020600301600082825401925050819055505080806001019150506121fd565b506000600190505b60095481116122dd576000600860008381526020019081526020016000206002015490506008600083815260200190815260200160002060030154600a600083815260200190815260200160002060020160008282540192505081905550508080600101915050612271565b50565b6040518060e00160405280600081526020016060815260200160608152602001606081526020016060815260200160608152602001600081525090565b828054600181600116156101000203166002900490600052602060002090601f016020900481019282601f1061235e57805160ff191683800117855561238c565b8280016001018555821561238c579182015b8281111561238b578251825591602001919060010190612370565b5b50905061239991906124ce565b5090565b828054600181600116156101000203166002900490600052602060002090601f016020900481019282601f106123de57805160ff191683800117855561240c565b8280016001018555821561240c579182015b8281111561240b5782518255916020019190600101906123f0565b5b50905061241991906124ce565b5090565b604051806060016040528060008152602001600073ffffffffffffffffffffffffffffffffffffffff168152602001600080191681525090565b6040518060e00160405280600081526020016060815260200160608152602001606081526020016060815260200160608152602001600081525090565b604051806060016040528060008152602001600073ffffffffffffffffffffffffffffffffffffffff168152602001600080191681525090565b6124f091905b808211156124ec5760008160009055506001016124d4565b5090565b90565b600082601f83011261250457600080fd5b813561251761251282612f1d565b612ef0565b9150808252602083016020830185838301111561253357600080fd5b61253e83828461304c565b50505092915050565b60008135905061255681613102565b92915050565b60006020828403121561256e57600080fd5b600082013567ffffffffffffffff81111561258857600080fd5b612594848285016124f3565b91505092915050565b600080600080600060a086880312156125b557600080fd5b600086013567ffffffffffffffff8111156125cf57600080fd5b6125db888289016124f3565b955050602086013567ffffffffffffffff8111156125f857600080fd5b612604888289016124f3565b945050604086013567ffffffffffffffff81111561262157600080fd5b61262d888289016124f3565b935050606086013567ffffffffffffffff81111561264a57600080fd5b612656888289016124f3565b925050608086013567ffffffffffffffff81111561267357600080fd5b61267f888289016124f3565b9150509295509295909350565b6000806040838503121561269f57600080fd5b600083013567ffffffffffffffff8111156126b957600080fd5b6126c5858286016124f3565b92505060206126d685828601612547565b9150509250929050565b6000602082840312156126f257600080fd5b600061270084828501612547565b91505092915050565b6000806040838503121561271c57600080fd5b600061272a85828601612547565b925050602061273b85828601612547565b9150509250929050565b60006127518383612ad5565b905092915050565b60006127658383612b8d565b60608301905092915050565b61278261277d82612ffa565b6130a0565b82525050565b61279181612fe8565b82525050565b6127a86127a382612fe8565b61308e565b82525050565b60006127b982612f69565b6127c38185612fa4565b9350836020820285016127d585612f49565b8060005b8581101561281157848403895281516127f28582612745565b94506127fd83612f8a565b925060208a019950506001810190506127d9565b50829750879550505050505092915050565b600061282e82612f74565b6128388185612fb5565b935061284383612f59565b8060005b8381101561287457815161285b8882612759565b975061286683612f97565b925050600181019050612847565b5085935050505092915050565b61288a8161300c565b82525050565b61289981613018565b82525050565b6128a881613018565b82525050565b6128bf6128ba82613018565b6130b2565b82525050565b60006128d082612f7f565b6128da8185612fc6565b93506128ea81856020860161305b565b6128f3816130d8565b840191505092915050565b600061290982612f7f565b6129138185612fd7565b935061292381856020860161305b565b61292c816130d8565b840191505092915050565b6000612944602283612fd7565b91507f596f75206861766520616c726561647920766f74656420696e2074686973205460008301527f50530000000000000000000000000000000000000000000000000000000000006020830152604082019050919050565b60006129aa601b83612fd7565b91507f54505320766f7465732076616c69646174696f6e206661696c656400000000006000830152602082019050919050565b60006129ea601483612fd7565b91507f496e76616c69642063616e6469646174652049440000000000000000000000006000830152602082019050919050565b600060e083016000830151612a356000860182612bcf565b5060208301518482036020860152612a4d82826128c5565b91505060408301518482036040860152612a6782826128c5565b91505060608301518482036060860152612a8182826128c5565b91505060808301518482036080860152612a9b82826128c5565b91505060a083015184820360a0860152612ab582826128c5565b91505060c0830151612aca60c0860182612bcf565b508091505092915050565b600060e083016000830151612aed6000860182612bcf565b5060208301518482036020860152612b0582826128c5565b91505060408301518482036040860152612b1f82826128c5565b91505060608301518482036060860152612b3982826128c5565b91505060808301518482036080860152612b5382826128c5565b91505060a083015184820360a0860152612b6d82826128c5565b91505060c0830151612b8260c0860182612bcf565b508091505092915050565b606082016000820151612ba36000850182612bcf565b506020820151612bb66020850182612788565b506040820151612bc96040850182612890565b50505050565b612bd881613042565b82525050565b612be781613042565b82525050565b612bfe612bf982613042565b6130ce565b82525050565b6000612c108286612bed565b602082019150612c208285612771565b601482019150612c3082846128ae565b602082019150819050949350505050565b6000612c4d8286612bed565b602082019150612c5d8285612797565b601482019150612c6d82846128ae565b602082019150819050949350505050565b60006020820190508181036000830152612c9881846127ae565b905092915050565b60006020820190508181036000830152612cba8184612823565b905092915050565b6000602082019050612cd76000830184612881565b92915050565b60006020820190508181036000830152612cf681612937565b9050919050565b60006020820190508181036000830152612d168161299d565b9050919050565b60006020820190508181036000830152612d36816129dd565b9050919050565b60006020820190508181036000830152612d578184612a1d565b905092915050565b6000602082019050612d746000830184612bde565b92915050565b600060e082019050612d8f600083018a612bde565b8181036020830152612da181896128fe565b90508181036040830152612db581886128fe565b90508181036060830152612dc981876128fe565b90508181036080830152612ddd81866128fe565b905081810360a0830152612df181856128fe565b9050612e0060c0830184612bde565b98975050505050505050565b6000606082019050612e216000830186612bde565b8181036020830152612e3381856128fe565b9050612e426040830184612bde565b949350505050565b6000608082019050612e5f6000830187612bde565b8181036020830152612e7181866128fe565b9050612e806040830185612bde565b612e8d6060830184612bde565b95945050505050565b600060a082019050612eab6000830188612bde565b8181036020830152612ebd81876128fe565b9050612ecc6040830186612bde565b612ed96060830185612bde565b612ee6608083018461289f565b9695505050505050565b6000604051905081810181811067ffffffffffffffff82111715612f1357600080fd5b8060405250919050565b600067ffffffffffffffff821115612f3457600080fd5b601f19601f8301169050602081019050919050565b6000819050602082019050919050565b6000819050602082019050919050565b600081519050919050565b600081519050919050565b600081519050919050565b6000602082019050919050565b6000602082019050919050565b600082825260208201905092915050565b600082825260208201905092915050565b600082825260208201905092915050565b600082825260208201905092915050565b6000612ff382613022565b9050919050565b600061300582613022565b9050919050565b60008115159050919050565b6000819050919050565b600073ffffffffffffffffffffffffffffffffffffffff82169050919050565b6000819050919050565b82818337600083830152505050565b60005b8381101561307957808201518184015260208101905061305e565b83811115613088576000848401525b50505050565b6000613099826130bc565b9050919050565b60006130ab826130bc565b9050919050565b6000819050919050565b60006130c7826130e9565b9050919050565b6000819050919050565b6000601f19601f8301169050919050565b60006c0100000000000000000000000082029050919050565b61310b81613042565b811461311657600080fd5b5056fea365627a7a723158200ddf862c22f9a764b3331f20ec5c8fa44e3d88a7f7ec374e0163bda4a0dc92bf6c6578706572696d656e74616cf564736f6c63430005100040",
  "source": "// SPDX-License-Identifier: MIT\npragma solidity >=0.4.22 <0.9.0;\npragma experimental ABIEncoderV2;\n\ncontract Election {\n    struct Candidate {\n        uint256 id;\n        string leadName;\n        string viceName;\n        string imageUrl;\n        string vision;\n        string mission;\n        uint256 voteCount;\n    }\n\n    struct Vote {\n        uint256 candidateId;\n        address voter;\n        bytes32 previousVoteHash;\n    }\n\n    struct TPS {\n        uint256 id;\n        string name;\n        uint256 kelurahanId;\n        uint256 voteCount;\n        bytes32 lastVoteHash;\n        mapping(bytes32 => Vote) votes;\n        mapping(address => bool) voters;\n    }\n\n    struct Kelurahan {\n        uint256 id;\n        string name;\n        uint256 kecamatanId;\n        uint256 voteCount;\n    }\n\n    struct Kecamatan {\n        uint256 id;\n        string name;\n        uint256 kotaId;\n        uint256 voteCount;\n    }\n\n    struct Kota {\n        uint256 id;\n        string name;\n        uint256 provinsiId;\n        uint256 voteCount;\n    }\n\n    struct Provinsi {\n        uint256 id;\n        string name;\n        uint256 voteCount;\n    }\n\n    mapping(uint256 => Candidate) public candidates;\n    uint256 public candidatesCount;\n\n    mapping(uint256 => TPS) public tpsData;\n    uint256 public tpsCount;\n\n    mapping(uint256 => Kelurahan) public kelurahanData;\n    uint256 public kelurahanCount;\n\n    mapping(uint256 => Kecamatan) public kecamatanData;\n    uint256 public kecamatanCount;\n\n    mapping(uint256 => Kota) public kotaData;\n    uint256 public kotaCount;\n\n    mapping(uint256 => Provinsi) public provinsiData;\n    uint256 public provinsiCount;\n\n    constructor() public {\n        candidatesCount = 0;\n        tpsCount = 0;\n        kelurahanCount = 0;\n        kecamatanCount = 0;\n        kotaCount = 0;\n        provinsiCount = 0;\n    }\n\n    function addCandidate(string memory _leadName,\n        string memory _viceName, string memory _imageUrl,\n        string memory _vision, string memory _mission) public {\n        candidatesCount++;\n        candidates[candidatesCount].id = candidatesCount;\n        candidates[candidatesCount].leadName = _leadName;\n        candidates[candidatesCount].viceName = _viceName;\n        candidates[candidatesCount].imageUrl = _imageUrl;\n        candidates[candidatesCount].vision = _vision;\n        candidates[candidatesCount].mission = _mission;\n        candidates[candidatesCount].voteCount = 0;\n    }\n\n    function addTPS(string memory _name, uint256 _kelurahanId) public {\n        tpsCount++;\n        tpsData[tpsCount].id = tpsCount;\n        tpsData[tpsCount].name = _name;\n        tpsData[tpsCount].kelurahanId = _kelurahanId;\n        tpsData[tpsCount].voteCount = 0;\n        tpsData[tpsCount].lastVoteHash = bytes32(0);\n    }\n\n    function vote(uint256 _candidateId, uint256 _tpsId) public {\n        require(!tpsData[_tpsId].voters[msg.sender], \"You have already voted in this TPS\");\n        require(_candidateId > 0 && _candidateId <= candidatesCount, \"Invalid candidate ID\");\n\n        // Create the new vote\n        bytes32 previousVoteHash = tpsData[_tpsId].lastVoteHash;\n        bytes32 currentVoteHash = keccak256(abi.encodePacked(_candidateId, msg.sender, previousVoteHash));\n\n        Vote memory newVote = Vote({\n            candidateId: _candidateId,\n            voter: msg.sender,\n            previousVoteHash: previousVoteHash\n        });\n\n// Record the vote\n        tpsData[_tpsId].votes[currentVoteHash] = newVote;\n        tpsData[_tpsId].lastVoteHash = currentVoteHash;\n        tpsData[_tpsId].voteCount++;\n        tpsData[_tpsId].voters[msg.sender] = true;\n\n// Increment the candidate's vote count\n        candidates[_candidateId].voteCount++;\n    }\n\n    function addKelurahan(string memory _name, uint256 _kecamatanId) public {\n        kelurahanCount++;\n        kelurahanData[kelurahanCount] = Kelurahan(kelurahanCount, _name, _kecamatanId, 0);\n    }\n\n    function addKecamatan(string memory _name, uint256 _kotaId) public {\n        kecamatanCount++;\n        kecamatanData[kecamatanCount] = Kecamatan(kecamatanCount, _name, _kotaId, 0);\n    }\n\n    function addKota(string memory _name, uint256 _provinsiId) public {\n        kotaCount++;\n        kotaData[kotaCount] = Kota(kotaCount, _name, _provinsiId, 0);\n    }\n\n    function addProvinsi(string memory _name) public {\n        provinsiCount++;\n        provinsiData[provinsiCount] = Provinsi(provinsiCount, _name, 0);\n    }\n\n    function validateVotes(uint256 _tpsId) public view returns (bool) {\n        uint256 voteCount = tpsData[_tpsId].voteCount;\n        uint256 validVotes = 0;\n\n        bytes32 currentHash = tpsData[_tpsId].lastVoteHash;\n        while (currentHash != bytes32(0)) {\n            Vote memory currentVote = tpsData[_tpsId].votes[currentHash];\n            bytes32 calculatedHash = keccak256(abi.encodePacked(currentVote.candidateId, currentVote.voter, currentVote.previousVoteHash));\n            if (calculatedHash == currentHash) {\n                validVotes++;\n            }\n            currentHash = currentVote.previousVoteHash;\n        }\n\n        return validVotes >= (voteCount * 51) / 100;\n    }\n\n    function calculateVotes() public {\n        for (uint256 i = 1; i <= tpsCount; i++) {\n            require(validateVotes(i), \"TPS votes validation failed\");\n            uint256 kelurahanId = tpsData[i].kelurahanId;\n            kelurahanData[kelurahanId].voteCount += tpsData[i].voteCount;\n        }\n\n        for (uint256 i = 1; i <= kelurahanCount; i++) {\n            uint256 kecamatanId = kelurahanData[i].kecamatanId;\n            kecamatanData[kecamatanId].voteCount += kelurahanData[i].voteCount;\n        }\n\n        for (uint256 i = 1; i <= kecamatanCount; i++) {\n            uint256 kotaId = kecamatanData[i].kotaId;\n            kotaData[kotaId].voteCount += kecamatanData[i].voteCount;\n        }\n\n        for (uint256 i = 1; i <= kotaCount; i++) {\n            uint256 provinsiId = kotaData[i].provinsiId;\n            provinsiData[provinsiId].voteCount += kotaData[i].voteCount;\n        }\n    }\n\n    function getWinner() public returns (Candidate memory) {\n        calculateVotes();\n\n        Candidate memory winner = candidates[1];\n        for (uint256 i = 2; i <= candidatesCount; i++) {\n            if (candidates[i].voteCount > winner.voteCount) {\n                winner = candidates[i];\n            }\n        }\n\n        return winner;\n    }\n\n    function getCandidates() public view returns (Candidate[] memory) {\n        Candidate[] memory candidateList = new Candidate[](candidatesCount);\n        for (uint256 i = 1; i <= candidatesCount; i++) {\n            candidateList[i - 1] = candidates[i];\n        }\n        return candidateList;\n    }\n\n    function getTPSVotes(uint256 _tpsId) public view returns (Vote[] memory) {\n        uint256 voteCount = tpsData[_tpsId].voteCount;\n        Vote[] memory votes = new Vote[](voteCount);\n\n        bytes32 currentHash = tpsData[_tpsId].lastVoteHash;\n        for (uint256 i = voteCount; i > 0; i--) {\n            votes[i - 1] = tpsData[_tpsId].votes[currentHash];\n            currentHash = votes[i - 1].previousVoteHash;\n        }\n\n        return votes;\n    }\n}\n",
  "sourcePath": "D:\\Projects\\votechain\\contracts\\Election.sol",
  "compiler": {
    "name": "solc",
    "version": "0.5.16+commit.9c3226ce.Emscripten.clang"
  },
  "schemaVersion": "3.4.16",
  "updatedAt": "2024-05-30T11:58:42.489Z",
  "networkType": "ethereum",
  "devdoc": {
    "methods": {}
  },
  "userdoc": {
    "methods": {}
  }
}